{
  "abi": [
    {
      "inputs": [],
      "stateMutability": "nonpayable",
      "type": "constructor"
    },
    {
      "inputs": [
        {
          "internalType": "uint256",
          "name": "regionId",
          "type": "uint256"
        }
      ],
      "name": "CannotBeReInitialized",
      "type": "error"
    },
    {
      "inputs": [
        {
          "internalType": "uint256",
          "name": "regionId",
          "type": "uint256"
        },
        {
          "internalType": "uint256",
          "name": "last",
          "type": "uint256"
        },
        {
          "internalType": "uint256",
          "name": "latest",
          "type": "uint256"
        }
      ],
      "name": "InvalidLastSnapshotBlock",
      "type": "error"
    },
    {
      "inputs": [
        {
          "internalType": "uint256",
          "name": "regionId",
          "type": "uint256"
        },
        {
          "internalType": "uint256",
          "name": "target",
          "type": "uint256"
        },
        {
          "internalType": "uint256",
          "name": "latest",
          "type": "uint256"
        }
      ],
      "name": "InvalidTargetSnapshotBlock",
      "type": "error"
    },
    {
      "anonymous": false,
      "inputs": [
        {
          "indexed": true,
          "internalType": "uint256",
          "name": "regionId",
          "type": "uint256"
        },
        {
          "indexed": true,
          "internalType": "uint256",
          "name": "block",
          "type": "uint256"
        },
        {
          "indexed": false,
          "internalType": "string",
          "name": "cid",
          "type": "string"
        }
      ],
      "name": "Delta",
      "type": "event"
    },
    {
      "anonymous": false,
      "inputs": [
        {
          "indexed": true,
          "internalType": "address",
          "name": "previousOwner",
          "type": "address"
        },
        {
          "indexed": true,
          "internalType": "address",
          "name": "newOwner",
          "type": "address"
        }
      ],
      "name": "OwnershipTransferred",
      "type": "event"
    },
    {
      "anonymous": false,
      "inputs": [
        {
          "indexed": true,
          "internalType": "uint256",
          "name": "regionId",
          "type": "uint256"
        },
        {
          "indexed": true,
          "internalType": "uint256",
          "name": "block",
          "type": "uint256"
        },
        {
          "indexed": false,
          "internalType": "string",
          "name": "cid",
          "type": "string"
        }
      ],
      "name": "Snapshot",
      "type": "event"
    },
    {
      "inputs": [
        {
          "internalType": "uint256",
          "name": "regionId",
          "type": "uint256"
        },
        {
          "internalType": "uint256",
          "name": "initBlock_",
          "type": "uint256"
        },
        {
          "internalType": "string",
          "name": "snapshotCid_",
          "type": "string"
        }
      ],
      "name": "initRegion",
      "outputs": [],
      "stateMutability": "nonpayable",
      "type": "function"
    },
    {
      "inputs": [],
      "name": "latestSnapshotInfo",
      "outputs": [
        {
          "components": [
            {
              "internalType": "uint256",
              "name": "block",
              "type": "uint256"
            },
            {
              "internalType": "string",
              "name": "cid",
              "type": "string"
            }
          ],
          "internalType": "struct Snapper.SnapshotInfo",
          "name": "",
          "type": "tuple"
        }
      ],
      "stateMutability": "view",
      "type": "function"
    },
    {
      "inputs": [
        {
          "internalType": "uint256",
          "name": "regionId",
          "type": "uint256"
        }
      ],
      "name": "latestSnapshotInfo",
      "outputs": [
        {
          "components": [
            {
              "internalType": "uint256",
              "name": "block",
              "type": "uint256"
            },
            {
              "internalType": "string",
              "name": "cid",
              "type": "string"
            }
          ],
          "internalType": "struct Snapper.SnapshotInfo",
          "name": "",
          "type": "tuple"
        }
      ],
      "stateMutability": "view",
      "type": "function"
    },
    {
      "inputs": [],
      "name": "owner",
      "outputs": [
        {
          "internalType": "address",
          "name": "",
          "type": "address"
        }
      ],
      "stateMutability": "view",
      "type": "function"
    },
    {
      "inputs": [],
      "name": "renounceOwnership",
      "outputs": [],
      "stateMutability": "nonpayable",
      "type": "function"
    },
    {
      "inputs": [
        {
          "internalType": "uint256",
          "name": "regionId",
          "type": "uint256"
        },
        {
          "internalType": "uint256",
          "name": "lastSnapshotBlock_",
          "type": "uint256"
        },
        {
          "internalType": "uint256",
          "name": "targetSnapshotBlock_",
          "type": "uint256"
        },
        {
          "internalType": "string",
          "name": "snapshotCid_",
          "type": "string"
        },
        {
          "internalType": "string",
          "name": "deltaCid_",
          "type": "string"
        }
      ],
      "name": "takeSnapshot",
      "outputs": [],
      "stateMutability": "nonpayable",
      "type": "function"
    },
    {
      "inputs": [
        {
          "internalType": "address",
          "name": "newOwner",
          "type": "address"
        }
      ],
      "name": "transferOwnership",
      "outputs": [],
      "stateMutability": "nonpayable",
      "type": "function"
    }
  ],
  "bytecode": {
    "object": "0x608060405234801561001057600080fd5b5061001a3361001f565b61006f565b600080546001600160a01b038381166001600160a01b0319831681178455604051919092169283917f8be0079c531659141344cd1fd0a4f28419497f9722a3daafe3b4186f6b6457e09190a35050565b61095d8061007e6000396000f3fe608060405234801561001057600080fd5b506004361061007d5760003560e01c80638da5cb5b1161005b5780638da5cb5b146100bd578063c500cd70146100d8578063dd1dff24146100eb578063f2fde38b146100fe57600080fd5b806369b18e3d14610082578063715018a6146100a05780637b9e138d146100aa575b600080fd5b61008a610111565b60405161009791906106af565b60405180910390f35b6100a861021b565b005b61008a6100b8366004610716565b61025a565b6000546040516001600160a01b039091168152602001610097565b6100a86100e6366004610778565b610328565b6100a86100f9366004610805565b61046f565b6100a861010c366004610858565b61052b565b6040805180820190915260008152606060208201526000805260016020908152604080518082019091527fa6eef7e35abe7026729641147f7915573c7e97b47efa546f5f6e3230263bcb49805482527fa6eef7e35abe7026729641147f7915573c7e97b47efa546f5f6e3230263bcb4a8054929391929184019161019490610888565b80601f01602080910402602001604051908101604052809291908181526020018280546101c090610888565b801561020d5780601f106101e25761010080835404028352916020019161020d565b820191906000526020600020905b8154815290600101906020018083116101f057829003601f168201915b505050505081525050905090565b6000546001600160a01b0316331461024e5760405162461bcd60e51b8152600401610245906108c3565b60405180910390fd5b61025860006105c6565b565b60408051808201909152600081526060602082015260008281526001602081815260409283902083518085019094528054845291820180549184019161029f90610888565b80601f01602080910402602001604051908101604052809291908181526020018280546102cb90610888565b80156103185780601f106102ed57610100808354040283529160200191610318565b820191906000526020600020905b8154815290600101906020018083116102fb57829003601f168201915b5050505050815250509050919050565b6000546001600160a01b031633146103525760405162461bcd60e51b8152600401610245906108c3565b600087815260016020526040902054868114158061036e575086155b1561039d576040516307718a6560e41b8152600481018990526024810188905260448101829052606401610245565b8086116103ce576040516381e5987560e01b8152600481018990526024810187905260448101829052606401610245565b60008881526001602081905260409091208781556103ee91018686610616565b5085887ff5b21854abb8e264b9fedaa3ad65446e0f22ec55a28f8724a7d1059c69bf808d87876040516104229291906108f8565b60405180910390a385887f6e85193c2c4e64266f8891650392a957214f1ebc72a7ffe64cc1c2715d5ce23b858560405161045d9291906108f8565b60405180910390a35050505050505050565b6000546001600160a01b031633146104995760405162461bcd60e51b8152600401610245906108c3565b600084815260016020526040902054156104c9576040516391edb58560e01b815260048101859052602401610245565b60008481526001602081905260409091208481556104e991018383610616565b5082847ff5b21854abb8e264b9fedaa3ad65446e0f22ec55a28f8724a7d1059c69bf808d848460405161051d9291906108f8565b60405180910390a350505050565b6000546001600160a01b031633146105555760405162461bcd60e51b8152600401610245906108c3565b6001600160a01b0381166105ba5760405162461bcd60e51b815260206004820152602660248201527f4f776e61626c653a206e6577206f776e657220697320746865207a65726f206160448201526564647265737360d01b6064820152608401610245565b6105c3816105c6565b50565b600080546001600160a01b038381166001600160a01b0319831681178455604051919092169283917f8be0079c531659141344cd1fd0a4f28419497f9722a3daafe3b4186f6b6457e09190a35050565b82805461062290610888565b90600052602060002090601f016020900481019282610644576000855561068a565b82601f1061065d5782800160ff1982351617855561068a565b8280016001018555821561068a579182015b8281111561068a57823582559160200191906001019061066f565b5061069692915061069a565b5090565b5b80821115610696576000815560010161069b565b6000602080835283518184015280840151604080850152805180606086015260005b818110156106ed578281018401518682016080015283016106d1565b818111156106ff576000608083880101525b50601f01601f191693909301608001949350505050565b60006020828403121561072857600080fd5b5035919050565b60008083601f84011261074157600080fd5b50813567ffffffffffffffff81111561075957600080fd5b60208301915083602082850101111561077157600080fd5b9250929050565b600080600080600080600060a0888a03121561079357600080fd5b873596506020880135955060408801359450606088013567ffffffffffffffff808211156107c057600080fd5b6107cc8b838c0161072f565b909650945060808a01359150808211156107e557600080fd5b506107f28a828b0161072f565b989b979a50959850939692959293505050565b6000806000806060858703121561081b57600080fd5b8435935060208501359250604085013567ffffffffffffffff81111561084057600080fd5b61084c8782880161072f565b95989497509550505050565b60006020828403121561086a57600080fd5b81356001600160a01b038116811461088157600080fd5b9392505050565b600181811c9082168061089c57607f821691505b602082108114156108bd57634e487b7160e01b600052602260045260246000fd5b50919050565b6020808252818101527f4f776e61626c653a2063616c6c6572206973206e6f7420746865206f776e6572604082015260600190565b60208152816020820152818360408301376000818301604090810191909152601f909201601f1916010191905056fea26469706673582212205d53fd16a766c5b714648f103dcad12cce447d5f9d5d2a7d477a288cd091ee8864736f6c634300080b0033",
    "linkReferences": {}
  }
}