{
  "abi": [
    {
      "inputs": [
        {
          "internalType": "uint256",
          "name": "theSpaceCreationBlock_",
          "type": "uint256"
        },
        {
          "internalType": "string",
          "name": "snapshotCid_",
          "type": "string"
        }
      ],
      "stateMutability": "nonpayable",
      "type": "constructor"
    },
    {
      "inputs": [
        {
          "internalType": "uint256",
          "name": "last",
          "type": "uint256"
        },
        {
          "internalType": "uint256",
          "name": "latest",
          "type": "uint256"
        }
      ],
      "name": "InvalidLastSnapshotBlock",
      "type": "error"
    },
    {
      "inputs": [
        {
          "internalType": "uint256",
          "name": "target",
          "type": "uint256"
        },
        {
          "internalType": "uint256",
          "name": "latest",
          "type": "uint256"
        }
      ],
      "name": "InvalidSnapshotBlock",
      "type": "error"
    },
    {
      "anonymous": false,
      "inputs": [
        {
          "indexed": true,
          "internalType": "uint256",
          "name": "block",
          "type": "uint256"
        },
        {
          "indexed": false,
          "internalType": "string",
          "name": "cid",
          "type": "string"
        }
      ],
      "name": "Delta",
      "type": "event"
    },
    {
      "anonymous": false,
      "inputs": [
        {
          "indexed": true,
          "internalType": "address",
          "name": "previousOwner",
          "type": "address"
        },
        {
          "indexed": true,
          "internalType": "address",
          "name": "newOwner",
          "type": "address"
        }
      ],
      "name": "OwnershipTransferred",
      "type": "event"
    },
    {
      "anonymous": false,
      "inputs": [
        {
          "indexed": true,
          "internalType": "uint256",
          "name": "block",
          "type": "uint256"
        },
        {
          "indexed": false,
          "internalType": "string",
          "name": "cid",
          "type": "string"
        }
      ],
      "name": "Snapshot",
      "type": "event"
    },
    {
      "inputs": [],
      "name": "latestSnapshotInfo",
      "outputs": [
        {
          "internalType": "uint256",
          "name": "latestSnapshotBlock",
          "type": "uint256"
        },
        {
          "internalType": "string",
          "name": "latestSnapshotCid",
          "type": "string"
        }
      ],
      "stateMutability": "view",
      "type": "function"
    },
    {
      "inputs": [],
      "name": "owner",
      "outputs": [
        {
          "internalType": "address",
          "name": "",
          "type": "address"
        }
      ],
      "stateMutability": "view",
      "type": "function"
    },
    {
      "inputs": [],
      "name": "renounceOwnership",
      "outputs": [],
      "stateMutability": "nonpayable",
      "type": "function"
    },
    {
      "inputs": [
        {
          "internalType": "uint256",
          "name": "lastSnapshotBlock_",
          "type": "uint256"
        },
        {
          "internalType": "uint256",
          "name": "snapshotBlock_",
          "type": "uint256"
        },
        {
          "internalType": "string",
          "name": "snapshotCid_",
          "type": "string"
        },
        {
          "internalType": "string",
          "name": "deltaCid_",
          "type": "string"
        }
      ],
      "name": "takeSnapshot",
      "outputs": [],
      "stateMutability": "nonpayable",
      "type": "function"
    },
    {
      "inputs": [
        {
          "internalType": "address",
          "name": "newOwner",
          "type": "address"
        }
      ],
      "name": "transferOwnership",
      "outputs": [],
      "stateMutability": "nonpayable",
      "type": "function"
    }
  ],
  "bytecode": {
    "object": "0x60806040523480156200001157600080fd5b5060405162000990380380620009908339810160408190526200003491620001dd565b6200003f336200009e565b6001829055805162000059906002906020840190620000ee565b506001547f33038a04092464e1b8ce6006a75d1518a1226c32d269977e141f566ea7e284ab826040516200008e9190620002a2565b60405180910390a2505062000314565b600080546001600160a01b038381166001600160a01b0319831681178455604051919092169283917f8be0079c531659141344cd1fd0a4f28419497f9722a3daafe3b4186f6b6457e09190a35050565b828054620000fc90620002d7565b90600052602060002090601f0160209004810192826200012057600085556200016b565b82601f106200013b57805160ff19168380011785556200016b565b828001600101855582156200016b579182015b828111156200016b5782518255916020019190600101906200014e565b50620001799291506200017d565b5090565b5b808211156200017957600081556001016200017e565b634e487b7160e01b600052604160045260246000fd5b60005b83811015620001c7578181015183820152602001620001ad565b83811115620001d7576000848401525b50505050565b60008060408385031215620001f157600080fd5b825160208401519092506001600160401b03808211156200021157600080fd5b818501915085601f8301126200022657600080fd5b8151818111156200023b576200023b62000194565b604051601f8201601f19908116603f0116810190838211818310171562000266576200026662000194565b816040528281528860208487010111156200028057600080fd5b62000293836020830160208801620001aa565b80955050505050509250929050565b6020815260008251806020840152620002c3816040850160208701620001aa565b601f01601f19169190910160400192915050565b600181811c90821680620002ec57607f821691505b602082108114156200030e57634e487b7160e01b600052602260045260246000fd5b50919050565b61066c80620003246000396000f3fe608060405234801561001057600080fd5b50600436106100575760003560e01c806320b318dd1461005c57806369b18e3d14610071578063715018a6146100905780638da5cb5b14610098578063f2fde38b146100b3575b600080fd5b61006f61006a366004610487565b6100c6565b005b6100796101e7565b60405161008792919061050a565b60405180910390f35b61006f610284565b6000546040516001600160a01b039091168152602001610087565b61006f6100c1366004610567565b6102ba565b6000546001600160a01b031633146100f95760405162461bcd60e51b81526004016100f090610597565b60405180910390fd5b600154861461012957600154604051632f6be60f60e11b81526100f0918891600401918252602082015260400190565b600154851161015957600154604051636586c34160e01b81526100f0918791600401918252602082015260400190565b600185905561016a600285856103a5565b50847f33038a04092464e1b8ce6006a75d1518a1226c32d269977e141f566ea7e284ab858560405161019d9291906105cc565b60405180910390a2847fa5b3e711b2ac194148bd0cc430b2636dd0cdc497572e7e901874375b8fb0a57183836040516101d79291906105cc565b60405180910390a2505050505050565b6000606060015460028080546101fc906105fb565b80601f0160208091040260200160405190810160405280929190818152602001828054610228906105fb565b80156102755780601f1061024a57610100808354040283529160200191610275565b820191906000526020600020905b81548152906001019060200180831161025857829003601f168201915b50505050509050915091509091565b6000546001600160a01b031633146102ae5760405162461bcd60e51b81526004016100f090610597565b6102b86000610355565b565b6000546001600160a01b031633146102e45760405162461bcd60e51b81526004016100f090610597565b6001600160a01b0381166103495760405162461bcd60e51b815260206004820152602660248201527f4f776e61626c653a206e6577206f776e657220697320746865207a65726f206160448201526564647265737360d01b60648201526084016100f0565b61035281610355565b50565b600080546001600160a01b038381166001600160a01b0319831681178455604051919092169283917f8be0079c531659141344cd1fd0a4f28419497f9722a3daafe3b4186f6b6457e09190a35050565b8280546103b1906105fb565b90600052602060002090601f0160209004810192826103d35760008555610419565b82601f106103ec5782800160ff19823516178555610419565b82800160010185558215610419579182015b828111156104195782358255916020019190600101906103fe565b50610425929150610429565b5090565b5b80821115610425576000815560010161042a565b60008083601f84011261045057600080fd5b50813567ffffffffffffffff81111561046857600080fd5b60208301915083602082850101111561048057600080fd5b9250929050565b600080600080600080608087890312156104a057600080fd5b8635955060208701359450604087013567ffffffffffffffff808211156104c657600080fd5b6104d28a838b0161043e565b909650945060608901359150808211156104eb57600080fd5b506104f889828a0161043e565b979a9699509497509295939492505050565b82815260006020604081840152835180604085015260005b8181101561053e57858101830151858201606001528201610522565b81811115610550576000606083870101525b50601f01601f191692909201606001949350505050565b60006020828403121561057957600080fd5b81356001600160a01b038116811461059057600080fd5b9392505050565b6020808252818101527f4f776e61626c653a2063616c6c6572206973206e6f7420746865206f776e6572604082015260600190565b60208152816020820152818360408301376000818301604090810191909152601f909201601f19160101919050565b600181811c9082168061060f57607f821691505b6020821081141561063057634e487b7160e01b600052602260045260246000fd5b5091905056fea2646970667358221220db2a22d9db91ecd8071326f720ca2ce3930f18ef1fc9d845396038416531a39b64736f6c634300080b0033",
    "linkReferences": {}
  }
}