{
  "abi": [
    {
      "inputs": [
        {
          "internalType": "string",
          "name": "propertyName_",
          "type": "string"
        },
        {
          "internalType": "string",
          "name": "propertySymbol_",
          "type": "string"
        },
        {
          "internalType": "uint256",
          "name": "totalSupply_",
          "type": "uint256"
        },
        {
          "internalType": "uint256",
          "name": "taxRate_",
          "type": "uint256"
        },
        {
          "internalType": "uint256",
          "name": "treasuryShare_",
          "type": "uint256"
        },
        {
          "internalType": "uint256",
          "name": "mintTax_",
          "type": "uint256"
        },
        {
          "internalType": "address",
          "name": "currencyAddress_",
          "type": "address"
        }
      ],
      "stateMutability": "nonpayable",
      "type": "constructor"
    },
    {
      "inputs": [
        {
          "internalType": "uint256",
          "name": "min",
          "type": "uint256"
        },
        {
          "internalType": "uint256",
          "name": "max",
          "type": "uint256"
        }
      ],
      "name": "InvalidTokenId",
      "type": "error"
    },
    {
      "anonymous": false,
      "inputs": [
        {
          "indexed": true,
          "internalType": "address",
          "name": "owner",
          "type": "address"
        },
        {
          "indexed": true,
          "internalType": "address",
          "name": "approved",
          "type": "address"
        },
        {
          "indexed": true,
          "internalType": "uint256",
          "name": "tokenId",
          "type": "uint256"
        }
      ],
      "name": "Approval",
      "type": "event"
    },
    {
      "anonymous": false,
      "inputs": [
        {
          "indexed": true,
          "internalType": "address",
          "name": "owner",
          "type": "address"
        },
        {
          "indexed": true,
          "internalType": "address",
          "name": "operator",
          "type": "address"
        },
        {
          "indexed": false,
          "internalType": "bool",
          "name": "approved",
          "type": "bool"
        }
      ],
      "name": "ApprovalForAll",
      "type": "event"
    },
    {
      "anonymous": false,
      "inputs": [
        {
          "indexed": true,
          "internalType": "uint256",
          "name": "tokenId",
          "type": "uint256"
        },
        {
          "indexed": true,
          "internalType": "address",
          "name": "from",
          "type": "address"
        },
        {
          "indexed": true,
          "internalType": "address",
          "name": "to",
          "type": "address"
        },
        {
          "indexed": false,
          "internalType": "uint256",
          "name": "amount",
          "type": "uint256"
        }
      ],
      "name": "Bid",
      "type": "event"
    },
    {
      "anonymous": false,
      "inputs": [
        {
          "indexed": true,
          "internalType": "uint256",
          "name": "tokenId",
          "type": "uint256"
        },
        {
          "indexed": true,
          "internalType": "uint256",
          "name": "color",
          "type": "uint256"
        },
        {
          "indexed": true,
          "internalType": "address",
          "name": "owner",
          "type": "address"
        }
      ],
      "name": "Color",
      "type": "event"
    },
    {
      "anonymous": false,
      "inputs": [
        {
          "indexed": true,
          "internalType": "enum ITheSpaceRegistry.ConfigOptions",
          "name": "option",
          "type": "uint8"
        },
        {
          "indexed": false,
          "internalType": "uint256",
          "name": "value",
          "type": "uint256"
        }
      ],
      "name": "Config",
      "type": "event"
    },
    {
      "anonymous": false,
      "inputs": [
        {
          "indexed": true,
          "internalType": "address",
          "name": "previousOwner",
          "type": "address"
        },
        {
          "indexed": true,
          "internalType": "address",
          "name": "newOwner",
          "type": "address"
        }
      ],
      "name": "OwnershipTransferred",
      "type": "event"
    },
    {
      "anonymous": false,
      "inputs": [
        {
          "indexed": true,
          "internalType": "uint256",
          "name": "tokenId",
          "type": "uint256"
        },
        {
          "indexed": false,
          "internalType": "uint256",
          "name": "price",
          "type": "uint256"
        },
        {
          "indexed": true,
          "internalType": "address",
          "name": "owner",
          "type": "address"
        }
      ],
      "name": "Price",
      "type": "event"
    },
    {
      "anonymous": false,
      "inputs": [
        {
          "indexed": true,
          "internalType": "uint256",
          "name": "tokenId",
          "type": "uint256"
        },
        {
          "indexed": true,
          "internalType": "address",
          "name": "taxpayer",
          "type": "address"
        },
        {
          "indexed": false,
          "internalType": "uint256",
          "name": "amount",
          "type": "uint256"
        }
      ],
      "name": "Tax",
      "type": "event"
    },
    {
      "anonymous": false,
      "inputs": [
        {
          "indexed": true,
          "internalType": "address",
          "name": "from",
          "type": "address"
        },
        {
          "indexed": true,
          "internalType": "address",
          "name": "to",
          "type": "address"
        },
        {
          "indexed": true,
          "internalType": "uint256",
          "name": "tokenId",
          "type": "uint256"
        }
      ],
      "name": "Transfer",
      "type": "event"
    },
    {
      "anonymous": false,
      "inputs": [
        {
          "indexed": true,
          "internalType": "uint256",
          "name": "tokenId",
          "type": "uint256"
        },
        {
          "indexed": true,
          "internalType": "address",
          "name": "recipient",
          "type": "address"
        },
        {
          "indexed": false,
          "internalType": "uint256",
          "name": "amount",
          "type": "uint256"
        }
      ],
      "name": "UBI",
      "type": "event"
    },
    {
      "inputs": [
        {
          "internalType": "address",
          "name": "to",
          "type": "address"
        },
        {
          "internalType": "uint256",
          "name": "tokenId",
          "type": "uint256"
        }
      ],
      "name": "approve",
      "outputs": [],
      "stateMutability": "nonpayable",
      "type": "function"
    },
    {
      "inputs": [
        {
          "internalType": "address",
          "name": "owner",
          "type": "address"
        }
      ],
      "name": "balanceOf",
      "outputs": [
        {
          "internalType": "uint256",
          "name": "",
          "type": "uint256"
        }
      ],
      "stateMutability": "view",
      "type": "function"
    },
    {
      "inputs": [
        {
          "internalType": "uint256",
          "name": "tokenId_",
          "type": "uint256"
        }
      ],
      "name": "burn",
      "outputs": [],
      "stateMutability": "nonpayable",
      "type": "function"
    },
    {
      "inputs": [],
      "name": "currency",
      "outputs": [
        {
          "internalType": "contract ERC20",
          "name": "",
          "type": "address"
        }
      ],
      "stateMutability": "view",
      "type": "function"
    },
    {
      "inputs": [
        {
          "internalType": "uint256",
          "name": "tokenId_",
          "type": "uint256"
        },
        {
          "internalType": "address",
          "name": "from_",
          "type": "address"
        },
        {
          "internalType": "address",
          "name": "to_",
          "type": "address"
        },
        {
          "internalType": "uint256",
          "name": "amount_",
          "type": "uint256"
        }
      ],
      "name": "emitBid",
      "outputs": [],
      "stateMutability": "nonpayable",
      "type": "function"
    },
    {
      "inputs": [
        {
          "internalType": "uint256",
          "name": "tokenId_",
          "type": "uint256"
        },
        {
          "internalType": "uint256",
          "name": "color_",
          "type": "uint256"
        },
        {
          "internalType": "address",
          "name": "owner_",
          "type": "address"
        }
      ],
      "name": "emitColor",
      "outputs": [],
      "stateMutability": "nonpayable",
      "type": "function"
    },
    {
      "inputs": [
        {
          "internalType": "uint256",
          "name": "tokenId_",
          "type": "uint256"
        },
        {
          "internalType": "uint256",
          "name": "price_",
          "type": "uint256"
        },
        {
          "internalType": "address",
          "name": "operator_",
          "type": "address"
        }
      ],
      "name": "emitPrice",
      "outputs": [],
      "stateMutability": "nonpayable",
      "type": "function"
    },
    {
      "inputs": [
        {
          "internalType": "uint256",
          "name": "tokenId_",
          "type": "uint256"
        },
        {
          "internalType": "address",
          "name": "taxpayer_",
          "type": "address"
        },
        {
          "internalType": "uint256",
          "name": "amount_",
          "type": "uint256"
        }
      ],
      "name": "emitTax",
      "outputs": [],
      "stateMutability": "nonpayable",
      "type": "function"
    },
    {
      "inputs": [
        {
          "internalType": "uint256",
          "name": "tokenId_",
          "type": "uint256"
        },
        {
          "internalType": "address",
          "name": "recipient_",
          "type": "address"
        },
        {
          "internalType": "uint256",
          "name": "amount_",
          "type": "uint256"
        }
      ],
      "name": "emitUBI",
      "outputs": [],
      "stateMutability": "nonpayable",
      "type": "function"
    },
    {
      "inputs": [
        {
          "internalType": "uint256",
          "name": "tokenId_",
          "type": "uint256"
        }
      ],
      "name": "exists",
      "outputs": [
        {
          "internalType": "bool",
          "name": "",
          "type": "bool"
        }
      ],
      "stateMutability": "view",
      "type": "function"
    },
    {
      "inputs": [
        {
          "internalType": "uint256",
          "name": "tokenId",
          "type": "uint256"
        }
      ],
      "name": "getApproved",
      "outputs": [
        {
          "internalType": "address",
          "name": "",
          "type": "address"
        }
      ],
      "stateMutability": "view",
      "type": "function"
    },
    {
      "inputs": [
        {
          "internalType": "address",
          "name": "owner",
          "type": "address"
        },
        {
          "internalType": "address",
          "name": "operator",
          "type": "address"
        }
      ],
      "name": "isApprovedForAll",
      "outputs": [
        {
          "internalType": "bool",
          "name": "",
          "type": "bool"
        }
      ],
      "stateMutability": "view",
      "type": "function"
    },
    {
      "inputs": [
        {
          "internalType": "address",
          "name": "spender_",
          "type": "address"
        },
        {
          "internalType": "uint256",
          "name": "tokenId_",
          "type": "uint256"
        }
      ],
      "name": "isApprovedOrOwner",
      "outputs": [
        {
          "internalType": "bool",
          "name": "",
          "type": "bool"
        }
      ],
      "stateMutability": "view",
      "type": "function"
    },
    {
      "inputs": [
        {
          "internalType": "address",
          "name": "to_",
          "type": "address"
        },
        {
          "internalType": "uint256",
          "name": "tokenId_",
          "type": "uint256"
        }
      ],
      "name": "mint",
      "outputs": [],
      "stateMutability": "nonpayable",
      "type": "function"
    },
    {
      "inputs": [],
      "name": "name",
      "outputs": [
        {
          "internalType": "string",
          "name": "",
          "type": "string"
        }
      ],
      "stateMutability": "view",
      "type": "function"
    },
    {
      "inputs": [],
      "name": "owner",
      "outputs": [
        {
          "internalType": "address",
          "name": "",
          "type": "address"
        }
      ],
      "stateMutability": "view",
      "type": "function"
    },
    {
      "inputs": [
        {
          "internalType": "uint256",
          "name": "tokenId",
          "type": "uint256"
        }
      ],
      "name": "ownerOf",
      "outputs": [
        {
          "internalType": "address",
          "name": "",
          "type": "address"
        }
      ],
      "stateMutability": "view",
      "type": "function"
    },
    {
      "inputs": [
        {
          "internalType": "uint256",
          "name": "",
          "type": "uint256"
        }
      ],
      "name": "pixelColor",
      "outputs": [
        {
          "internalType": "uint256",
          "name": "",
          "type": "uint256"
        }
      ],
      "stateMutability": "view",
      "type": "function"
    },
    {
      "inputs": [],
      "name": "renounceOwnership",
      "outputs": [],
      "stateMutability": "nonpayable",
      "type": "function"
    },
    {
      "inputs": [
        {
          "internalType": "address",
          "name": "from_",
          "type": "address"
        },
        {
          "internalType": "address",
          "name": "to_",
          "type": "address"
        },
        {
          "internalType": "uint256",
          "name": "tokenId_",
          "type": "uint256"
        }
      ],
      "name": "safeTransferByMarket",
      "outputs": [],
      "stateMutability": "nonpayable",
      "type": "function"
    },
    {
      "inputs": [
        {
          "internalType": "address",
          "name": "from",
          "type": "address"
        },
        {
          "internalType": "address",
          "name": "to",
          "type": "address"
        },
        {
          "internalType": "uint256",
          "name": "tokenId",
          "type": "uint256"
        }
      ],
      "name": "safeTransferFrom",
      "outputs": [],
      "stateMutability": "nonpayable",
      "type": "function"
    },
    {
      "inputs": [
        {
          "internalType": "address",
          "name": "from_",
          "type": "address"
        },
        {
          "internalType": "address",
          "name": "to_",
          "type": "address"
        },
        {
          "internalType": "uint256",
          "name": "tokenId_",
          "type": "uint256"
        },
        {
          "internalType": "bytes",
          "name": "data_",
          "type": "bytes"
        }
      ],
      "name": "safeTransferFrom",
      "outputs": [],
      "stateMutability": "nonpayable",
      "type": "function"
    },
    {
      "inputs": [
        {
          "internalType": "address",
          "name": "operator",
          "type": "address"
        },
        {
          "internalType": "bool",
          "name": "approved",
          "type": "bool"
        }
      ],
      "name": "setApprovalForAll",
      "outputs": [],
      "stateMutability": "nonpayable",
      "type": "function"
    },
    {
      "inputs": [
        {
          "internalType": "uint256",
          "name": "tokenId_",
          "type": "uint256"
        },
        {
          "internalType": "uint256",
          "name": "color_",
          "type": "uint256"
        }
      ],
      "name": "setColor",
      "outputs": [],
      "stateMutability": "nonpayable",
      "type": "function"
    },
    {
      "inputs": [
        {
          "internalType": "enum ITheSpaceRegistry.ConfigOptions",
          "name": "option_",
          "type": "uint8"
        },
        {
          "internalType": "uint256",
          "name": "value_",
          "type": "uint256"
        }
      ],
      "name": "setTaxConfig",
      "outputs": [],
      "stateMutability": "nonpayable",
      "type": "function"
    },
    {
      "inputs": [
        {
          "internalType": "uint256",
          "name": "tokenId_",
          "type": "uint256"
        },
        {
          "internalType": "uint256",
          "name": "price_",
          "type": "uint256"
        },
        {
          "internalType": "uint256",
          "name": "lastTaxCollection_",
          "type": "uint256"
        },
        {
          "internalType": "uint256",
          "name": "ubiWithdrawn_",
          "type": "uint256"
        }
      ],
      "name": "setTokenRecord",
      "outputs": [],
      "stateMutability": "nonpayable",
      "type": "function"
    },
    {
      "inputs": [
        {
          "internalType": "uint256",
          "name": "totalSupply_",
          "type": "uint256"
        }
      ],
      "name": "setTotalSupply",
      "outputs": [],
      "stateMutability": "nonpayable",
      "type": "function"
    },
    {
      "inputs": [
        {
          "internalType": "uint256",
          "name": "accumulatedUBI_",
          "type": "uint256"
        },
        {
          "internalType": "uint256",
          "name": "accumulatedTreasury_",
          "type": "uint256"
        },
        {
          "internalType": "uint256",
          "name": "treasuryWithdrawn_",
          "type": "uint256"
        }
      ],
      "name": "setTreasuryRecord",
      "outputs": [],
      "stateMutability": "nonpayable",
      "type": "function"
    },
    {
      "inputs": [
        {
          "internalType": "bytes4",
          "name": "interfaceId",
          "type": "bytes4"
        }
      ],
      "name": "supportsInterface",
      "outputs": [
        {
          "internalType": "bool",
          "name": "",
          "type": "bool"
        }
      ],
      "stateMutability": "view",
      "type": "function"
    },
    {
      "inputs": [],
      "name": "symbol",
      "outputs": [
        {
          "internalType": "string",
          "name": "",
          "type": "string"
        }
      ],
      "stateMutability": "view",
      "type": "function"
    },
    {
      "inputs": [
        {
          "internalType": "enum ITheSpaceRegistry.ConfigOptions",
          "name": "",
          "type": "uint8"
        }
      ],
      "name": "taxConfig",
      "outputs": [
        {
          "internalType": "uint256",
          "name": "",
          "type": "uint256"
        }
      ],
      "stateMutability": "view",
      "type": "function"
    },
    {
      "inputs": [
        {
          "internalType": "uint256",
          "name": "index",
          "type": "uint256"
        }
      ],
      "name": "tokenByIndex",
      "outputs": [
        {
          "internalType": "uint256",
          "name": "",
          "type": "uint256"
        }
      ],
      "stateMutability": "view",
      "type": "function"
    },
    {
      "inputs": [
        {
          "internalType": "address",
          "name": "owner",
          "type": "address"
        },
        {
          "internalType": "uint256",
          "name": "index",
          "type": "uint256"
        }
      ],
      "name": "tokenOfOwnerByIndex",
      "outputs": [
        {
          "internalType": "uint256",
          "name": "",
          "type": "uint256"
        }
      ],
      "stateMutability": "view",
      "type": "function"
    },
    {
      "inputs": [
        {
          "internalType": "uint256",
          "name": "",
          "type": "uint256"
        }
      ],
      "name": "tokenRecord",
      "outputs": [
        {
          "internalType": "uint256",
          "name": "price",
          "type": "uint256"
        },
        {
          "internalType": "uint256",
          "name": "lastTaxCollection",
          "type": "uint256"
        },
        {
          "internalType": "uint256",
          "name": "ubiWithdrawn",
          "type": "uint256"
        }
      ],
      "stateMutability": "view",
      "type": "function"
    },
    {
      "inputs": [
        {
          "internalType": "uint256",
          "name": "tokenId",
          "type": "uint256"
        }
      ],
      "name": "tokenURI",
      "outputs": [
        {
          "internalType": "string",
          "name": "",
          "type": "string"
        }
      ],
      "stateMutability": "view",
      "type": "function"
    },
    {
      "inputs": [],
      "name": "totalSupply",
      "outputs": [
        {
          "internalType": "uint256",
          "name": "",
          "type": "uint256"
        }
      ],
      "stateMutability": "view",
      "type": "function"
    },
    {
      "inputs": [
        {
          "internalType": "address",
          "name": "to_",
          "type": "address"
        },
        {
          "internalType": "uint256",
          "name": "amount_",
          "type": "uint256"
        }
      ],
      "name": "transferCurrency",
      "outputs": [],
      "stateMutability": "nonpayable",
      "type": "function"
    },
    {
      "inputs": [
        {
          "internalType": "address",
          "name": "from_",
          "type": "address"
        },
        {
          "internalType": "address",
          "name": "to_",
          "type": "address"
        },
        {
          "internalType": "uint256",
          "name": "amount_",
          "type": "uint256"
        }
      ],
      "name": "transferCurrencyFrom",
      "outputs": [],
      "stateMutability": "nonpayable",
      "type": "function"
    },
    {
      "inputs": [
        {
          "internalType": "address",
          "name": "from_",
          "type": "address"
        },
        {
          "internalType": "address",
          "name": "to_",
          "type": "address"
        },
        {
          "internalType": "uint256",
          "name": "tokenId_",
          "type": "uint256"
        }
      ],
      "name": "transferFrom",
      "outputs": [],
      "stateMutability": "nonpayable",
      "type": "function"
    },
    {
      "inputs": [
        {
          "internalType": "address",
          "name": "newOwner",
          "type": "address"
        }
      ],
      "name": "transferOwnership",
      "outputs": [],
      "stateMutability": "nonpayable",
      "type": "function"
    },
    {
      "inputs": [],
      "name": "treasuryRecord",
      "outputs": [
        {
          "internalType": "uint256",
          "name": "accumulatedUBI",
          "type": "uint256"
        },
        {
          "internalType": "uint256",
          "name": "accumulatedTreasury",
          "type": "uint256"
        },
        {
          "internalType": "uint256",
          "name": "treasuryWithdrawn",
          "type": "uint256"
        }
      ],
      "stateMutability": "view",
      "type": "function"
    }
  ],
  "bytecode": {
    "object": "0x60a06040523480156200001157600080fd5b506040516200296f3803806200296f8339810160408190526200003491620002d9565b8651879087906200004d90600090602085019062000166565b5080516200006390600190602084019062000166565b505050620000806200007a6200011060201b60201c565b62000114565b600b949094556001600160a01b03909316608052600e6020527fe710864318d4a32f37d6ce54cb3fadbef648dd12d8dbdf53973564d56b7f881c919091557fa7c5ba7114a813b50159add3a36832908dc83db71d0b9a24c2ad0f83be9582075560026000527f9adb202b1492743bc00c81d33cdc6423fa8c79109027eb6a845391e8fc1f04815550620003c79050565b3390565b600a80546001600160a01b038381166001600160a01b0319831681179093556040519116919082907f8be0079c531659141344cd1fd0a4f28419497f9722a3daafe3b4186f6b6457e090600090a35050565b82805462000174906200038a565b90600052602060002090601f016020900481019282620001985760008555620001e3565b82601f10620001b357805160ff1916838001178555620001e3565b82800160010185558215620001e3579182015b82811115620001e3578251825591602001919060010190620001c6565b50620001f1929150620001f5565b5090565b5b80821115620001f15760008155600101620001f6565b634e487b7160e01b600052604160045260246000fd5b600082601f8301126200023457600080fd5b81516001600160401b03808211156200025157620002516200020c565b604051601f8301601f19908116603f011681019082821181831017156200027c576200027c6200020c565b816040528381526020925086838588010111156200029957600080fd5b600091505b83821015620002bd57858201830151818301840152908201906200029e565b83821115620002cf5760008385830101525b9695505050505050565b600080600080600080600060e0888a031215620002f557600080fd5b87516001600160401b03808211156200030d57600080fd5b6200031b8b838c0162000222565b985060208a01519150808211156200033257600080fd5b50620003418a828b0162000222565b96505060408801519450606088015193506080880151925060a0880151915060c088015160018060a01b03811681146200037a57600080fd5b8091505092959891949750929550565b600181811c908216806200039f57607f821691505b60208210811415620003c157634e487b7160e01b600052602260045260246000fd5b50919050565b60805161257e620003f16000396000818161053d01528181610e3901526111d0015261257e6000f3fe608060405234801561001057600080fd5b50600436106102525760003560e01c80635850088411610146578063b88d4fde116100c3578063e5a6b10f11610087578063e5a6b10f14610538578063e7d6fbbf1461055f578063e985e9c51461057f578063ecaf822a146105bb578063f2fde38b146105ce578063f7ea7a3d146105e157600080fd5b8063b88d4fde146104d9578063c87b56dd146104ec578063c9db3c9f146104ff578063d17d14c514610512578063e3759abd1461052557600080fd5b806376a91e6c1161010a57806376a91e6c146104875780638da5cb5b1461049a57806395d89b41146104ab578063a22cb465146104b3578063b3e4ee22146104c657600080fd5b806358500884146104175780635d4744041461042a5780636352211e1461045957806370a082311461046c578063715018a61461047f57600080fd5b80632b2163b3116101d4578063430c208111610198578063430c20811461039e5780634d7c7dc7146103b15780634f558e79146103de5780634f6ccce7146103f1578063583d42481461040457600080fd5b80632b2163b3146103525780632f745c591461036557806340c10f191461037857806342842e0e1461032c57806342966c681461038b57600080fd5b80631164da761161021b5780631164da76146102e757806318160ddd146102fa5780631d8d0f481461030c57806323b872dd1461032c578063242d81cd1461033f57600080fd5b80627f57501461025757806301ffc9a71461026c57806306fdde0314610294578063081812fc146102a9578063095ea7b3146102d4575b600080fd5b61026a610265366004611efa565b6105f4565b005b61027f61027a366004611f54565b61067b565b60405190151581526020015b60405180910390f35b61029c6106a6565b60405161028b9190611fc9565b6102bc6102b7366004611fdc565b610738565b6040516001600160a01b03909116815260200161028b565b61026a6102e2366004611ff5565b6107cd565b61026a6102f536600461201f565b6108e3565b600b545b60405190815260200161028b565b6102fe61031a366004611fdc565b600d6020526000908152604090205481565b61026a61033a366004612054565b610956565b61026a61034d366004612080565b610971565b61026a61036036600461201f565b6109ad565b6102fe610373366004611ff5565b610a13565b61026a610386366004611ff5565b610aa9565b61026a610399366004611fdc565b610b1d565b61027f6103ac366004611ff5565b610b53565b600f546010546011546103c392919083565b6040805193845260208401929092529082015260600161028b565b61027f6103ec366004611fdc565b610b66565b6102fe6103ff366004611fdc565b610b85565b61026a6104123660046120a2565b610c18565b61026a610425366004612054565b610c68565b6103c3610438366004611fdc565b600c6020526000908152604090208054600182015460029092015490919083565b6102bc610467366004611fdc565b610cad565b6102fe61047a3660046120ce565b610d24565b61026a610dab565b61026a610495366004612054565b610de1565b600a546001600160a01b03166102bc565b61029c610eac565b61026a6104c13660046120f7565b610ebb565b61026a6104d436600461212e565b610ec6565b61026a6104e7366004612176565b610f2b565b61029c6104fa366004611fdc565b610fcc565b61026a61050d366004612252565b6110b3565b61026a610520366004612252565b61111a565b61026a610533366004611ff5565b611180565b6102bc7f000000000000000000000000000000000000000000000000000000000000000081565b6102fe61056d366004612296565b600e6020526000908152604090205481565b61027f61058d3660046122b1565b6001600160a01b03918216600090815260056020908152604080832093909416825291909152205460ff1690565b61026a6105c93660046122e4565b61123d565b61026a6105dc3660046120ce565b6112e9565b61026a6105ef366004611fdc565b611381565b600a546001600160a01b031633146106275760405162461bcd60e51b815260040161061e90612300565b60405180910390fd5b816001600160a01b0316836001600160a01b0316857ff828f9266a867e728bd505090b4db2d33e1935c90d43a9fe0a6906eaf30bc48b8460405161066d91815260200190565b60405180910390a450505050565b60006001600160e01b0319821663780e9d6360e01b14806106a057506106a0826113b0565b92915050565b6060600080546106b590612335565b80601f01602080910402602001604051908101604052809291908181526020018280546106e190612335565b801561072e5780601f106107035761010080835404028352916020019161072e565b820191906000526020600020905b81548152906001019060200180831161071157829003601f168201915b5050505050905090565b6000818152600260205260408120546001600160a01b03166107b15760405162461bcd60e51b815260206004820152602c60248201527f4552433732313a20617070726f76656420717565727920666f72206e6f6e657860448201526b34b9ba32b73a103a37b5b2b760a11b606482015260840161061e565b506000908152600460205260409020546001600160a01b031690565b60006107d882610cad565b9050806001600160a01b0316836001600160a01b031614156108465760405162461bcd60e51b815260206004820152602160248201527f4552433732313a20617070726f76616c20746f2063757272656e74206f776e656044820152603960f91b606482015260840161061e565b336001600160a01b03821614806108625750610862813361058d565b6108d45760405162461bcd60e51b815260206004820152603860248201527f4552433732313a20617070726f76652063616c6c6572206973206e6f74206f7760448201527f6e6572206e6f7220617070726f76656420666f7220616c6c0000000000000000606482015260840161061e565b6108de8383611400565b505050565b600a546001600160a01b0316331461090d5760405162461bcd60e51b815260040161061e90612300565b816001600160a01b0316837fa760fe80056c46d089c37a35d9dbe762141a463ae0eb8235522d27ab9595286d8360405161094991815260200190565b60405180910390a3505050565b6108de83838360405180602001604052806000815250610f2b565b600a546001600160a01b0316331461099b5760405162461bcd60e51b815260040161061e90612300565b6000918252600d602052604090912055565b600a546001600160a01b031633146109d75760405162461bcd60e51b815260040161061e90612300565b816001600160a01b0316837fc5790222911f43ca7d78c4f5ef5cb5a21d7fda4d923d433b80e7db9c295de88a8360405161094991815260200190565b6000610a1e83610d24565b8210610a805760405162461bcd60e51b815260206004820152602b60248201527f455243373231456e756d657261626c653a206f776e657220696e646578206f7560448201526a74206f6620626f756e647360a81b606482015260840161061e565b506001600160a01b03919091166000908152600660209081526040808320938352929052205490565b600a546001600160a01b03163314610ad35760405162461bcd60e51b815260040161061e90612300565b600b54811180610ae35750600181105b15610b0f57600b5460405163168a450960e21b815260016004820152602481019190915260440161061e565b610b19828261146e565b5050565b600a546001600160a01b03163314610b475760405162461bcd60e51b815260040161061e90612300565b610b5081611488565b50565b6000610b5f838361152f565b9392505050565b6000818152600260205260408120546001600160a01b031615156106a0565b6000610b9060085490565b8210610bf35760405162461bcd60e51b815260206004820152602c60248201527f455243373231456e756d657261626c653a20676c6f62616c20696e646578206f60448201526b7574206f6620626f756e647360a01b606482015260840161061e565b60088281548110610c0657610c06612370565b90600052602060002001549050919050565b600a546001600160a01b03163314610c425760405162461bcd60e51b815260040161061e90612300565b604080516060810182528481526020810184905201819052600f92909255601055601155565b600a546001600160a01b03163314610c925760405162461bcd60e51b815260040161061e90612300565b6108de83838360405180602001604052806000815250611626565b6000818152600260205260408120546001600160a01b0316806106a05760405162461bcd60e51b815260206004820152602960248201527f4552433732313a206f776e657220717565727920666f72206e6f6e657869737460448201526832b73a103a37b5b2b760b91b606482015260840161061e565b60006001600160a01b038216610d8f5760405162461bcd60e51b815260206004820152602a60248201527f4552433732313a2062616c616e636520717565727920666f7220746865207a65604482015269726f206164647265737360b01b606482015260840161061e565b506001600160a01b031660009081526003602052604090205490565b600a546001600160a01b03163314610dd55760405162461bcd60e51b815260040161061e90612300565b610ddf6000611659565b565b600a546001600160a01b03163314610e0b5760405162461bcd60e51b815260040161061e90612300565b6040516323b872dd60e01b81526001600160a01b0384811660048301528381166024830152604482018390527f000000000000000000000000000000000000000000000000000000000000000016906323b872dd906064016020604051808303816000875af1158015610e82573d6000803e3d6000fd5b505050506040513d601f19601f82011682018060405250810190610ea69190612386565b50505050565b6060600180546106b590612335565b610b193383836116ab565b600a546001600160a01b03163314610ef05760405162461bcd60e51b815260040161061e90612300565b6040805160608101825293845260208085019384528482019283526000958652600c9052909320915182555160018201559051600290910155565b6000610f3f600a546001600160a01b031690565b60405163700bee4360e11b8152600481018590529091506000906001600160a01b0383169063e017dc86906024016020604051808303816000875af1158015610f8c573d6000803e3d6000fd5b505050506040513d601f19601f82011682018060405250810190610fb09190612386565b90508015610fc457610fc486868686611626565b505050505050565b6000818152600260205260409020546060906001600160a01b031661104b5760405162461bcd60e51b815260206004820152602f60248201527f4552433732314d657461646174613a2055524920717565727920666f72206e6f60448201526e3732bc34b9ba32b73a103a37b5b2b760891b606482015260840161061e565b600061106260408051602081019091526000815290565b905060008151116110825760405180602001604052806000815250610b5f565b8061108c84611772565b60405160200161109d9291906123a3565b6040516020818303038152906040529392505050565b600a546001600160a01b031633146110dd5760405162461bcd60e51b815260040161061e90612300565b806001600160a01b031682847f8da7074ffa2c919782faaf9705c7edfe7f814551a91b91aed83ee2ef5ac6af2760405160405180910390a4505050565b600a546001600160a01b031633146111445760405162461bcd60e51b815260040161061e90612300565b806001600160a01b0316837f75a0543aefc16d03b25751bdf0b5a2fbbec05c6436fd60b038d40f5b7d1def838460405161094991815260200190565b600a546001600160a01b031633146111aa5760405162461bcd60e51b815260040161061e90612300565b60405163a9059cbb60e01b81526001600160a01b038381166004830152602482018390527f0000000000000000000000000000000000000000000000000000000000000000169063a9059cbb906044016020604051808303816000875af1158015611219573d6000803e3d6000fd5b505050506040513d601f19601f820116820180604052508101906108de9190612386565b600a546001600160a01b031633146112675760405162461bcd60e51b815260040161061e90612300565b80600e600084600281111561127e5761127e6123d2565b600281111561128f5761128f6123d2565b81526020810191909152604001600020558160028111156112b2576112b26123d2565b6040518281527f90e64b63a2c952a97e60fcb9bdb464e5e76d2920683504331028687f0cd6643b9060200160405180910390a25050565b600a546001600160a01b031633146113135760405162461bcd60e51b815260040161061e90612300565b6001600160a01b0381166113785760405162461bcd60e51b815260206004820152602660248201527f4f776e61626c653a206e6577206f776e657220697320746865207a65726f206160448201526564647265737360d01b606482015260840161061e565b610b5081611659565b600a546001600160a01b031633146113ab5760405162461bcd60e51b815260040161061e90612300565b600b55565b60006001600160e01b031982166380ac58cd60e01b14806113e157506001600160e01b03198216635b5e139f60e01b145b806106a057506301ffc9a760e01b6001600160e01b03198316146106a0565b600081815260046020526040902080546001600160a01b0319166001600160a01b038416908117909155819061143582610cad565b6001600160a01b03167f8c5be1e5ebec7d5bd14f71427d1e84f3dd0314c0f7b2291e5b200ac8c7c3b92560405160405180910390a45050565b610b19828260405180602001604052806000815250611870565b600061149382610cad565b90506114a1816000846118a3565b6114ac600083611400565b6001600160a01b03811660009081526003602052604081208054600192906114d59084906123fe565b909155505060008281526002602052604080822080546001600160a01b0319169055518391906001600160a01b038416907fddf252ad1be2c89b69c2b068fc378daa952ba7f163c4a11628f55a4df523b3ef908390a45050565b6000818152600260205260408120546001600160a01b03166115a85760405162461bcd60e51b815260206004820152602c60248201527f4552433732313a206f70657261746f7220717565727920666f72206e6f6e657860448201526b34b9ba32b73a103a37b5b2b760a11b606482015260840161061e565b60006115b383610cad565b9050806001600160a01b0316846001600160a01b031614806115ee5750836001600160a01b03166115e384610738565b6001600160a01b0316145b8061161e57506001600160a01b0380821660009081526005602090815260408083209388168352929052205460ff165b949350505050565b61163184848461195b565b61163d84848484611b02565b610ea65760405162461bcd60e51b815260040161061e90612415565b600a80546001600160a01b038381166001600160a01b0319831681179093556040519116919082907f8be0079c531659141344cd1fd0a4f28419497f9722a3daafe3b4186f6b6457e090600090a35050565b816001600160a01b0316836001600160a01b0316141561170d5760405162461bcd60e51b815260206004820152601960248201527f4552433732313a20617070726f766520746f2063616c6c657200000000000000604482015260640161061e565b6001600160a01b03838116600081815260056020908152604080832094871680845294825291829020805460ff191686151590811790915591519182527f17307eab39ab6107e8899845ad3d59bd9653f200f220920489ca2b5937696c319101610949565b6060816117965750506040805180820190915260018152600360fc1b602082015290565b8160005b81156117c057806117aa81612467565b91506117b99050600a83612498565b915061179a565b60008167ffffffffffffffff8111156117db576117db612160565b6040519080825280601f01601f191660200182016040528015611805576020820181803683370190505b5090505b841561161e5761181a6001836123fe565b9150611827600a866124ac565b6118329060306124c0565b60f81b81838151811061184757611847612370565b60200101906001600160f81b031916908160001a905350611869600a86612498565b9450611809565b61187a8383611c00565b6118876000848484611b02565b6108de5760405162461bcd60e51b815260040161061e90612415565b6001600160a01b0383166118fe576118f981600880546000838152600960205260408120829055600182018355919091527ff3f7a9fe364faab93b216da50a3214154f22a0a2b415b23a84c8169e8b636ee30155565b611921565b816001600160a01b0316836001600160a01b031614611921576119218382611d4e565b6001600160a01b038216611938576108de81611deb565b826001600160a01b0316826001600160a01b0316146108de576108de8282611e9a565b826001600160a01b031661196e82610cad565b6001600160a01b0316146119d25760405162461bcd60e51b815260206004820152602560248201527f4552433732313a207472616e736665722066726f6d20696e636f72726563742060448201526437bbb732b960d91b606482015260840161061e565b6001600160a01b038216611a345760405162461bcd60e51b8152602060048201526024808201527f4552433732313a207472616e7366657220746f20746865207a65726f206164646044820152637265737360e01b606482015260840161061e565b611a3f8383836118a3565b611a4a600082611400565b6001600160a01b0383166000908152600360205260408120805460019290611a739084906123fe565b90915550506001600160a01b0382166000908152600360205260408120805460019290611aa19084906124c0565b909155505060008181526002602052604080822080546001600160a01b0319166001600160a01b0386811691821790925591518493918716917fddf252ad1be2c89b69c2b068fc378daa952ba7f163c4a11628f55a4df523b3ef91a4505050565b60006001600160a01b0384163b15611bf557604051630a85bd0160e11b81526001600160a01b0385169063150b7a0290611b469033908990889088906004016124d8565b6020604051808303816000875af1925050508015611b81575060408051601f3d908101601f19168201909252611b7e91810190612515565b60015b611bdb573d808015611baf576040519150601f19603f3d011682016040523d82523d6000602084013e611bb4565b606091505b508051611bd35760405162461bcd60e51b815260040161061e90612415565b805181602001fd5b6001600160e01b031916630a85bd0160e11b14905061161e565b506001949350505050565b6001600160a01b038216611c565760405162461bcd60e51b815260206004820181905260248201527f4552433732313a206d696e7420746f20746865207a65726f2061646472657373604482015260640161061e565b6000818152600260205260409020546001600160a01b031615611cbb5760405162461bcd60e51b815260206004820152601c60248201527f4552433732313a20746f6b656e20616c7265616479206d696e74656400000000604482015260640161061e565b611cc7600083836118a3565b6001600160a01b0382166000908152600360205260408120805460019290611cf09084906124c0565b909155505060008181526002602052604080822080546001600160a01b0319166001600160a01b03861690811790915590518392907fddf252ad1be2c89b69c2b068fc378daa952ba7f163c4a11628f55a4df523b3ef908290a45050565b60006001611d5b84610d24565b611d6591906123fe565b600083815260076020526040902054909150808214611db8576001600160a01b03841660009081526006602090815260408083208584528252808320548484528184208190558352600790915290208190555b5060009182526007602090815260408084208490556001600160a01b039094168352600681528383209183525290812055565b600854600090611dfd906001906123fe565b60008381526009602052604081205460088054939450909284908110611e2557611e25612370565b906000526020600020015490508060088381548110611e4657611e46612370565b6000918252602080832090910192909255828152600990915260408082208490558582528120556008805480611e7e57611e7e612532565b6001900381819060005260206000200160009055905550505050565b6000611ea583610d24565b6001600160a01b039093166000908152600660209081526040808320868452825280832085905593825260079052919091209190915550565b80356001600160a01b0381168114611ef557600080fd5b919050565b60008060008060808587031215611f1057600080fd5b84359350611f2060208601611ede565b9250611f2e60408601611ede565b9396929550929360600135925050565b6001600160e01b031981168114610b5057600080fd5b600060208284031215611f6657600080fd5b8135610b5f81611f3e565b60005b83811015611f8c578181015183820152602001611f74565b83811115610ea65750506000910152565b60008151808452611fb5816020860160208601611f71565b601f01601f19169290920160200192915050565b602081526000610b5f6020830184611f9d565b600060208284031215611fee57600080fd5b5035919050565b6000806040838503121561200857600080fd5b61201183611ede565b946020939093013593505050565b60008060006060848603121561203457600080fd5b8335925061204460208501611ede565b9150604084013590509250925092565b60008060006060848603121561206957600080fd5b61207284611ede565b925061204460208501611ede565b6000806040838503121561209357600080fd5b50508035926020909101359150565b6000806000606084860312156120b757600080fd5b505081359360208301359350604090920135919050565b6000602082840312156120e057600080fd5b610b5f82611ede565b8015158114610b5057600080fd5b6000806040838503121561210a57600080fd5b61211383611ede565b91506020830135612123816120e9565b809150509250929050565b6000806000806080858703121561214457600080fd5b5050823594602084013594506040840135936060013592509050565b634e487b7160e01b600052604160045260246000fd5b6000806000806080858703121561218c57600080fd5b61219585611ede565b93506121a360208601611ede565b925060408501359150606085013567ffffffffffffffff808211156121c757600080fd5b818701915087601f8301126121db57600080fd5b8135818111156121ed576121ed612160565b604051601f8201601f19908116603f0116810190838211818310171561221557612215612160565b816040528281528a602084870101111561222e57600080fd5b82602086016020830137600060208483010152809550505050505092959194509250565b60008060006060848603121561226757600080fd5b833592506020840135915061227e60408501611ede565b90509250925092565b803560038110611ef557600080fd5b6000602082840312156122a857600080fd5b610b5f82612287565b600080604083850312156122c457600080fd5b6122cd83611ede565b91506122db60208401611ede565b90509250929050565b600080604083850312156122f757600080fd5b61201183612287565b6020808252818101527f4f776e61626c653a2063616c6c6572206973206e6f7420746865206f776e6572604082015260600190565b600181811c9082168061234957607f821691505b6020821081141561236a57634e487b7160e01b600052602260045260246000fd5b50919050565b634e487b7160e01b600052603260045260246000fd5b60006020828403121561239857600080fd5b8151610b5f816120e9565b600083516123b5818460208801611f71565b8351908301906123c9818360208801611f71565b01949350505050565b634e487b7160e01b600052602160045260246000fd5b634e487b7160e01b600052601160045260246000fd5b600082821015612410576124106123e8565b500390565b60208082526032908201527f4552433732313a207472616e7366657220746f206e6f6e20455243373231526560408201527131b2b4bb32b91034b6b83632b6b2b73a32b960711b606082015260800190565b600060001982141561247b5761247b6123e8565b5060010190565b634e487b7160e01b600052601260045260246000fd5b6000826124a7576124a7612482565b500490565b6000826124bb576124bb612482565b500690565b600082198211156124d3576124d36123e8565b500190565b6001600160a01b038581168252841660208201526040810183905260806060820181905260009061250b90830184611f9d565b9695505050505050565b60006020828403121561252757600080fd5b8151610b5f81611f3e565b634e487b7160e01b600052603160045260246000fdfea2646970667358221220bc0dc47e3f5b09a6eb746f893f13e7c069d158db1694b732bce1c1637afa2db464736f6c634300080b0033",
    "linkReferences": {}
  }
}