{
  "abi": [
    {
      "inputs": [
        {
          "internalType": "address",
          "name": "currencyAddress_",
          "type": "address"
        },
        {
          "internalType": "address",
          "name": "aclManager_",
          "type": "address"
        },
        {
          "internalType": "address",
          "name": "marketAdmin_",
          "type": "address"
        },
        {
          "internalType": "address",
          "name": "treasuryAdmin_",
          "type": "address"
        }
      ],
      "stateMutability": "nonpayable",
      "type": "constructor"
    },
    {
      "inputs": [
        {
          "internalType": "uint256",
          "name": "min",
          "type": "uint256"
        },
        {
          "internalType": "uint256",
          "name": "max",
          "type": "uint256"
        }
      ],
      "name": "InvalidTokenId",
      "type": "error"
    },
    {
      "inputs": [],
      "name": "PriceTooLow",
      "type": "error"
    },
    {
      "inputs": [],
      "name": "TokenNotExists",
      "type": "error"
    },
    {
      "inputs": [],
      "name": "Unauthorized",
      "type": "error"
    },
    {
      "anonymous": false,
      "inputs": [
        {
          "indexed": true,
          "internalType": "address",
          "name": "owner",
          "type": "address"
        },
        {
          "indexed": true,
          "internalType": "address",
          "name": "approved",
          "type": "address"
        },
        {
          "indexed": true,
          "internalType": "uint256",
          "name": "tokenId",
          "type": "uint256"
        }
      ],
      "name": "Approval",
      "type": "event"
    },
    {
      "anonymous": false,
      "inputs": [
        {
          "indexed": true,
          "internalType": "address",
          "name": "owner",
          "type": "address"
        },
        {
          "indexed": true,
          "internalType": "address",
          "name": "operator",
          "type": "address"
        },
        {
          "indexed": false,
          "internalType": "bool",
          "name": "approved",
          "type": "bool"
        }
      ],
      "name": "ApprovalForAll",
      "type": "event"
    },
    {
      "anonymous": false,
      "inputs": [
        {
          "indexed": true,
          "internalType": "uint256",
          "name": "tokenId",
          "type": "uint256"
        },
        {
          "indexed": true,
          "internalType": "address",
          "name": "from",
          "type": "address"
        },
        {
          "indexed": true,
          "internalType": "address",
          "name": "to",
          "type": "address"
        },
        {
          "indexed": false,
          "internalType": "uint256",
          "name": "amount",
          "type": "uint256"
        }
      ],
      "name": "Bid",
      "type": "event"
    },
    {
      "anonymous": false,
      "inputs": [
        {
          "indexed": true,
          "internalType": "uint256",
          "name": "pixelId",
          "type": "uint256"
        },
        {
          "indexed": true,
          "internalType": "uint256",
          "name": "color",
          "type": "uint256"
        },
        {
          "indexed": true,
          "internalType": "address",
          "name": "owner",
          "type": "address"
        }
      ],
      "name": "Color",
      "type": "event"
    },
    {
      "anonymous": false,
      "inputs": [
        {
          "indexed": true,
          "internalType": "enum IHarbergerMarket.ConfigOptions",
          "name": "option",
          "type": "uint8"
        },
        {
          "indexed": false,
          "internalType": "uint256",
          "name": "value",
          "type": "uint256"
        }
      ],
      "name": "Config",
      "type": "event"
    },
    {
      "anonymous": false,
      "inputs": [
        {
          "indexed": true,
          "internalType": "uint256",
          "name": "tokenId",
          "type": "uint256"
        },
        {
          "indexed": false,
          "internalType": "uint256",
          "name": "price",
          "type": "uint256"
        },
        {
          "indexed": true,
          "internalType": "address",
          "name": "owner",
          "type": "address"
        }
      ],
      "name": "Price",
      "type": "event"
    },
    {
      "anonymous": false,
      "inputs": [
        {
          "indexed": true,
          "internalType": "bytes32",
          "name": "role",
          "type": "bytes32"
        },
        {
          "indexed": true,
          "internalType": "bytes32",
          "name": "previousAdminRole",
          "type": "bytes32"
        },
        {
          "indexed": true,
          "internalType": "bytes32",
          "name": "newAdminRole",
          "type": "bytes32"
        }
      ],
      "name": "RoleAdminChanged",
      "type": "event"
    },
    {
      "anonymous": false,
      "inputs": [
        {
          "indexed": true,
          "internalType": "bytes32",
          "name": "role",
          "type": "bytes32"
        },
        {
          "indexed": true,
          "internalType": "address",
          "name": "account",
          "type": "address"
        },
        {
          "indexed": true,
          "internalType": "address",
          "name": "sender",
          "type": "address"
        }
      ],
      "name": "RoleGranted",
      "type": "event"
    },
    {
      "anonymous": false,
      "inputs": [
        {
          "indexed": true,
          "internalType": "bytes32",
          "name": "role",
          "type": "bytes32"
        },
        {
          "indexed": true,
          "internalType": "address",
          "name": "account",
          "type": "address"
        },
        {
          "indexed": true,
          "internalType": "address",
          "name": "sender",
          "type": "address"
        }
      ],
      "name": "RoleRevoked",
      "type": "event"
    },
    {
      "anonymous": false,
      "inputs": [
        {
          "indexed": true,
          "internalType": "uint256",
          "name": "tokenId",
          "type": "uint256"
        },
        {
          "indexed": true,
          "internalType": "address",
          "name": "taxpayer",
          "type": "address"
        },
        {
          "indexed": false,
          "internalType": "uint256",
          "name": "amount",
          "type": "uint256"
        }
      ],
      "name": "Tax",
      "type": "event"
    },
    {
      "anonymous": false,
      "inputs": [
        {
          "indexed": true,
          "internalType": "address",
          "name": "from",
          "type": "address"
        },
        {
          "indexed": true,
          "internalType": "address",
          "name": "to",
          "type": "address"
        },
        {
          "indexed": true,
          "internalType": "uint256",
          "name": "tokenId",
          "type": "uint256"
        }
      ],
      "name": "Transfer",
      "type": "event"
    },
    {
      "anonymous": false,
      "inputs": [
        {
          "indexed": true,
          "internalType": "uint256",
          "name": "tokenId",
          "type": "uint256"
        },
        {
          "indexed": true,
          "internalType": "address",
          "name": "recipient",
          "type": "address"
        },
        {
          "indexed": false,
          "internalType": "uint256",
          "name": "amount",
          "type": "uint256"
        }
      ],
      "name": "UBI",
      "type": "event"
    },
    {
      "inputs": [],
      "name": "DEFAULT_ADMIN_ROLE",
      "outputs": [
        {
          "internalType": "bytes32",
          "name": "",
          "type": "bytes32"
        }
      ],
      "stateMutability": "view",
      "type": "function"
    },
    {
      "inputs": [],
      "name": "MARKET_ADMIN",
      "outputs": [
        {
          "internalType": "bytes32",
          "name": "",
          "type": "bytes32"
        }
      ],
      "stateMutability": "view",
      "type": "function"
    },
    {
      "inputs": [],
      "name": "TREASURY_ADMIN",
      "outputs": [
        {
          "internalType": "bytes32",
          "name": "",
          "type": "bytes32"
        }
      ],
      "stateMutability": "view",
      "type": "function"
    },
    {
      "inputs": [
        {
          "internalType": "address",
          "name": "to",
          "type": "address"
        },
        {
          "internalType": "uint256",
          "name": "tokenId",
          "type": "uint256"
        }
      ],
      "name": "approve",
      "outputs": [],
      "stateMutability": "nonpayable",
      "type": "function"
    },
    {
      "inputs": [
        {
          "internalType": "address",
          "name": "owner",
          "type": "address"
        }
      ],
      "name": "balanceOf",
      "outputs": [
        {
          "internalType": "uint256",
          "name": "",
          "type": "uint256"
        }
      ],
      "stateMutability": "view",
      "type": "function"
    },
    {
      "inputs": [
        {
          "internalType": "uint256",
          "name": "tokenId_",
          "type": "uint256"
        },
        {
          "internalType": "uint256",
          "name": "price_",
          "type": "uint256"
        }
      ],
      "name": "bid",
      "outputs": [],
      "stateMutability": "nonpayable",
      "type": "function"
    },
    {
      "inputs": [],
      "name": "currency",
      "outputs": [
        {
          "internalType": "contract ERC20",
          "name": "",
          "type": "address"
        }
      ],
      "stateMutability": "view",
      "type": "function"
    },
    {
      "inputs": [
        {
          "internalType": "uint256",
          "name": "tokenId_",
          "type": "uint256"
        }
      ],
      "name": "evaluateOwnership",
      "outputs": [
        {
          "internalType": "uint256",
          "name": "collectable",
          "type": "uint256"
        },
        {
          "internalType": "bool",
          "name": "shouldDefault",
          "type": "bool"
        }
      ],
      "stateMutability": "view",
      "type": "function"
    },
    {
      "inputs": [
        {
          "internalType": "uint256",
          "name": "tokenId",
          "type": "uint256"
        }
      ],
      "name": "getApproved",
      "outputs": [
        {
          "internalType": "address",
          "name": "",
          "type": "address"
        }
      ],
      "stateMutability": "view",
      "type": "function"
    },
    {
      "inputs": [
        {
          "internalType": "uint256",
          "name": "tokenId",
          "type": "uint256"
        }
      ],
      "name": "getColor",
      "outputs": [
        {
          "internalType": "uint256",
          "name": "",
          "type": "uint256"
        }
      ],
      "stateMutability": "view",
      "type": "function"
    },
    {
      "inputs": [
        {
          "internalType": "uint256",
          "name": "tokenId_",
          "type": "uint256"
        }
      ],
      "name": "getOwner",
      "outputs": [
        {
          "internalType": "address",
          "name": "owner",
          "type": "address"
        }
      ],
      "stateMutability": "view",
      "type": "function"
    },
    {
      "inputs": [
        {
          "internalType": "uint256",
          "name": "tokenId_",
          "type": "uint256"
        }
      ],
      "name": "getPixel",
      "outputs": [
        {
          "internalType": "uint256",
          "name": "tokenId",
          "type": "uint256"
        },
        {
          "internalType": "uint256",
          "name": "price",
          "type": "uint256"
        },
        {
          "internalType": "uint256",
          "name": "lastTaxCollection",
          "type": "uint256"
        },
        {
          "internalType": "uint256",
          "name": "ubi",
          "type": "uint256"
        },
        {
          "internalType": "address",
          "name": "owner",
          "type": "address"
        },
        {
          "internalType": "uint256",
          "name": "color",
          "type": "uint256"
        }
      ],
      "stateMutability": "view",
      "type": "function"
    },
    {
      "inputs": [
        {
          "internalType": "uint256",
          "name": "tokenId_",
          "type": "uint256"
        }
      ],
      "name": "getPrice",
      "outputs": [
        {
          "internalType": "uint256",
          "name": "price",
          "type": "uint256"
        }
      ],
      "stateMutability": "view",
      "type": "function"
    },
    {
      "inputs": [
        {
          "internalType": "bytes32",
          "name": "role",
          "type": "bytes32"
        }
      ],
      "name": "getRoleAdmin",
      "outputs": [
        {
          "internalType": "bytes32",
          "name": "",
          "type": "bytes32"
        }
      ],
      "stateMutability": "view",
      "type": "function"
    },
    {
      "inputs": [
        {
          "internalType": "uint256",
          "name": "tokenId_",
          "type": "uint256"
        }
      ],
      "name": "getTax",
      "outputs": [
        {
          "internalType": "uint256",
          "name": "",
          "type": "uint256"
        }
      ],
      "stateMutability": "view",
      "type": "function"
    },
    {
      "inputs": [
        {
          "internalType": "address",
          "name": "owner",
          "type": "address"
        },
        {
          "internalType": "uint256",
          "name": "limit",
          "type": "uint256"
        },
        {
          "internalType": "uint256",
          "name": "offset",
          "type": "uint256"
        }
      ],
      "name": "getTokensByOwner",
      "outputs": [
        {
          "internalType": "uint256[]",
          "name": "",
          "type": "uint256[]"
        }
      ],
      "stateMutability": "view",
      "type": "function"
    },
    {
      "inputs": [
        {
          "internalType": "bytes32",
          "name": "role",
          "type": "bytes32"
        },
        {
          "internalType": "address",
          "name": "account",
          "type": "address"
        }
      ],
      "name": "grantRole",
      "outputs": [],
      "stateMutability": "nonpayable",
      "type": "function"
    },
    {
      "inputs": [
        {
          "internalType": "bytes32",
          "name": "role",
          "type": "bytes32"
        },
        {
          "internalType": "address",
          "name": "account",
          "type": "address"
        }
      ],
      "name": "hasRole",
      "outputs": [
        {
          "internalType": "bool",
          "name": "",
          "type": "bool"
        }
      ],
      "stateMutability": "view",
      "type": "function"
    },
    {
      "inputs": [
        {
          "internalType": "address",
          "name": "owner",
          "type": "address"
        },
        {
          "internalType": "address",
          "name": "operator",
          "type": "address"
        }
      ],
      "name": "isApprovedForAll",
      "outputs": [
        {
          "internalType": "bool",
          "name": "",
          "type": "bool"
        }
      ],
      "stateMutability": "view",
      "type": "function"
    },
    {
      "inputs": [
        {
          "internalType": "bytes[]",
          "name": "data",
          "type": "bytes[]"
        }
      ],
      "name": "multicall",
      "outputs": [
        {
          "internalType": "bytes[]",
          "name": "results",
          "type": "bytes[]"
        }
      ],
      "stateMutability": "nonpayable",
      "type": "function"
    },
    {
      "inputs": [],
      "name": "name",
      "outputs": [
        {
          "internalType": "string",
          "name": "",
          "type": "string"
        }
      ],
      "stateMutability": "view",
      "type": "function"
    },
    {
      "inputs": [
        {
          "internalType": "uint256",
          "name": "tokenId",
          "type": "uint256"
        }
      ],
      "name": "ownerOf",
      "outputs": [
        {
          "internalType": "address",
          "name": "",
          "type": "address"
        }
      ],
      "stateMutability": "view",
      "type": "function"
    },
    {
      "inputs": [
        {
          "internalType": "uint256",
          "name": "",
          "type": "uint256"
        }
      ],
      "name": "pixelColor",
      "outputs": [
        {
          "internalType": "uint256",
          "name": "",
          "type": "uint256"
        }
      ],
      "stateMutability": "view",
      "type": "function"
    },
    {
      "inputs": [
        {
          "internalType": "bytes32",
          "name": "role",
          "type": "bytes32"
        },
        {
          "internalType": "address",
          "name": "account",
          "type": "address"
        }
      ],
      "name": "renounceRole",
      "outputs": [],
      "stateMutability": "nonpayable",
      "type": "function"
    },
    {
      "inputs": [
        {
          "internalType": "bytes32",
          "name": "role",
          "type": "bytes32"
        },
        {
          "internalType": "address",
          "name": "account",
          "type": "address"
        }
      ],
      "name": "revokeRole",
      "outputs": [],
      "stateMutability": "nonpayable",
      "type": "function"
    },
    {
      "inputs": [
        {
          "internalType": "address",
          "name": "from",
          "type": "address"
        },
        {
          "internalType": "address",
          "name": "to",
          "type": "address"
        },
        {
          "internalType": "uint256",
          "name": "tokenId",
          "type": "uint256"
        }
      ],
      "name": "safeTransferFrom",
      "outputs": [],
      "stateMutability": "nonpayable",
      "type": "function"
    },
    {
      "inputs": [
        {
          "internalType": "address",
          "name": "from_",
          "type": "address"
        },
        {
          "internalType": "address",
          "name": "to_",
          "type": "address"
        },
        {
          "internalType": "uint256",
          "name": "tokenId_",
          "type": "uint256"
        },
        {
          "internalType": "bytes",
          "name": "data_",
          "type": "bytes"
        }
      ],
      "name": "safeTransferFrom",
      "outputs": [],
      "stateMutability": "nonpayable",
      "type": "function"
    },
    {
      "inputs": [
        {
          "internalType": "address",
          "name": "operator",
          "type": "address"
        },
        {
          "internalType": "bool",
          "name": "approved",
          "type": "bool"
        }
      ],
      "name": "setApprovalForAll",
      "outputs": [],
      "stateMutability": "nonpayable",
      "type": "function"
    },
    {
      "inputs": [
        {
          "internalType": "uint256",
          "name": "tokenId",
          "type": "uint256"
        },
        {
          "internalType": "uint256",
          "name": "color",
          "type": "uint256"
        }
      ],
      "name": "setColor",
      "outputs": [],
      "stateMutability": "nonpayable",
      "type": "function"
    },
    {
      "inputs": [
        {
          "internalType": "uint256",
          "name": "tokenId_",
          "type": "uint256"
        },
        {
          "internalType": "uint256",
          "name": "bid_",
          "type": "uint256"
        },
        {
          "internalType": "uint256",
          "name": "price_",
          "type": "uint256"
        },
        {
          "internalType": "uint256",
          "name": "color_",
          "type": "uint256"
        }
      ],
      "name": "setPixel",
      "outputs": [],
      "stateMutability": "nonpayable",
      "type": "function"
    },
    {
      "inputs": [
        {
          "internalType": "uint256",
          "name": "tokenId_",
          "type": "uint256"
        },
        {
          "internalType": "uint256",
          "name": "price_",
          "type": "uint256"
        }
      ],
      "name": "setPrice",
      "outputs": [],
      "stateMutability": "nonpayable",
      "type": "function"
    },
    {
      "inputs": [
        {
          "internalType": "enum IHarbergerMarket.ConfigOptions",
          "name": "option_",
          "type": "uint8"
        },
        {
          "internalType": "uint256",
          "name": "value_",
          "type": "uint256"
        }
      ],
      "name": "setTaxConfig",
      "outputs": [],
      "stateMutability": "nonpayable",
      "type": "function"
    },
    {
      "inputs": [
        {
          "internalType": "uint256",
          "name": "tokenId_",
          "type": "uint256"
        }
      ],
      "name": "settleTax",
      "outputs": [
        {
          "internalType": "bool",
          "name": "success",
          "type": "bool"
        }
      ],
      "stateMutability": "nonpayable",
      "type": "function"
    },
    {
      "inputs": [
        {
          "internalType": "bytes4",
          "name": "interfaceId_",
          "type": "bytes4"
        }
      ],
      "name": "supportsInterface",
      "outputs": [
        {
          "internalType": "bool",
          "name": "",
          "type": "bool"
        }
      ],
      "stateMutability": "view",
      "type": "function"
    },
    {
      "inputs": [],
      "name": "symbol",
      "outputs": [
        {
          "internalType": "string",
          "name": "",
          "type": "string"
        }
      ],
      "stateMutability": "view",
      "type": "function"
    },
    {
      "inputs": [
        {
          "internalType": "enum IHarbergerMarket.ConfigOptions",
          "name": "",
          "type": "uint8"
        }
      ],
      "name": "taxConfig",
      "outputs": [
        {
          "internalType": "uint256",
          "name": "",
          "type": "uint256"
        }
      ],
      "stateMutability": "view",
      "type": "function"
    },
    {
      "inputs": [
        {
          "internalType": "uint256",
          "name": "index",
          "type": "uint256"
        }
      ],
      "name": "tokenByIndex",
      "outputs": [
        {
          "internalType": "uint256",
          "name": "",
          "type": "uint256"
        }
      ],
      "stateMutability": "view",
      "type": "function"
    },
    {
      "inputs": [
        {
          "internalType": "address",
          "name": "owner",
          "type": "address"
        },
        {
          "internalType": "uint256",
          "name": "index",
          "type": "uint256"
        }
      ],
      "name": "tokenOfOwnerByIndex",
      "outputs": [
        {
          "internalType": "uint256",
          "name": "",
          "type": "uint256"
        }
      ],
      "stateMutability": "view",
      "type": "function"
    },
    {
      "inputs": [
        {
          "internalType": "uint256",
          "name": "",
          "type": "uint256"
        }
      ],
      "name": "tokenRecord",
      "outputs": [
        {
          "internalType": "uint256",
          "name": "price",
          "type": "uint256"
        },
        {
          "internalType": "uint256",
          "name": "lastTaxCollection",
          "type": "uint256"
        },
        {
          "internalType": "uint256",
          "name": "ubiWithdrawn",
          "type": "uint256"
        }
      ],
      "stateMutability": "view",
      "type": "function"
    },
    {
      "inputs": [
        {
          "internalType": "uint256",
          "name": "tokenId",
          "type": "uint256"
        }
      ],
      "name": "tokenURI",
      "outputs": [
        {
          "internalType": "string",
          "name": "",
          "type": "string"
        }
      ],
      "stateMutability": "view",
      "type": "function"
    },
    {
      "inputs": [],
      "name": "totalSupply",
      "outputs": [
        {
          "internalType": "uint256",
          "name": "",
          "type": "uint256"
        }
      ],
      "stateMutability": "view",
      "type": "function"
    },
    {
      "inputs": [
        {
          "internalType": "address",
          "name": "from_",
          "type": "address"
        },
        {
          "internalType": "address",
          "name": "to_",
          "type": "address"
        },
        {
          "internalType": "uint256",
          "name": "tokenId_",
          "type": "uint256"
        }
      ],
      "name": "transferFrom",
      "outputs": [],
      "stateMutability": "nonpayable",
      "type": "function"
    },
    {
      "inputs": [],
      "name": "treasuryRecord",
      "outputs": [
        {
          "internalType": "uint256",
          "name": "accumulatedUBI",
          "type": "uint256"
        },
        {
          "internalType": "uint256",
          "name": "accumulatedTreasury",
          "type": "uint256"
        },
        {
          "internalType": "uint256",
          "name": "treasuryWithdrawn",
          "type": "uint256"
        }
      ],
      "stateMutability": "view",
      "type": "function"
    },
    {
      "inputs": [
        {
          "internalType": "uint256",
          "name": "tokenId_",
          "type": "uint256"
        }
      ],
      "name": "ubiAvailable",
      "outputs": [
        {
          "internalType": "uint256",
          "name": "",
          "type": "uint256"
        }
      ],
      "stateMutability": "view",
      "type": "function"
    },
    {
      "inputs": [
        {
          "internalType": "address",
          "name": "to",
          "type": "address"
        }
      ],
      "name": "withdrawTreasury",
      "outputs": [],
      "stateMutability": "nonpayable",
      "type": "function"
    },
    {
      "inputs": [
        {
          "internalType": "uint256",
          "name": "tokenId_",
          "type": "uint256"
        }
      ],
      "name": "withdrawUbi",
      "outputs": [],
      "stateMutability": "nonpayable",
      "type": "function"
    }
  ],
  "bytecode": {
    "object": "0x6080604052620f4240600b553480156200001857600080fd5b5060405162003855380380620038558339810160408190526200003b9162000387565b60405180604001604052806006815260200165506c616e636b60d01b81525060405180604001604052806003815260200162504c4b60e81b815250858585858282828888816000908051906020019062000097929190620002c4565b508051620000ad906001906020840190620002c4565b5050506001600160a01b038316620000fa5760405162461bcd60e51b815260206004820152600c60248201526b7a65726f206164647265737360a01b604482015260640160405180910390fd5b6200010760008462000210565b620001337f07f0a275418c306f0387154a78b34319faf760726ea38247d69f21825e8947a68362000210565b6200015f7f27f406f19fd1b378cfb619bc553f0cd86d17e85e38ecad46997fb68ad17b73078262000210565b5050600c80546001600160a01b0319166001600160a01b039690961695909517909455505060116020525050604b7f4ad3b33220dddc71b994a52d72c06b10862965f7d926534c05c00fb7e819e7b75550506101f47f17bc176d2408558f6e4111feebc3cab4e16b63e967be91cde721f4c8a488b55255505060026000525050670de0b6b3a76400007f08037d7b151cc412d25674a4e66b334d9ae9d2e5517a7feaae5cdb828bf1c6285562000421565b6200021c828262000220565b5050565b6000828152600a602090815260408083206001600160a01b038516845290915290205460ff166200021c576000828152600a602090815260408083206001600160a01b03851684529091529020805460ff19166001179055620002803390565b6001600160a01b0316816001600160a01b0316837f2f8788117e7eff1d82e926ec794901d17c78024a50270940304540a733656f0d60405160405180910390a45050565b828054620002d290620003e4565b90600052602060002090601f016020900481019282620002f6576000855562000341565b82601f106200031157805160ff191683800117855562000341565b8280016001018555821562000341579182015b828111156200034157825182559160200191906001019062000324565b506200034f92915062000353565b5090565b5b808211156200034f576000815560010162000354565b80516001600160a01b03811681146200038257600080fd5b919050565b600080600080608085870312156200039e57600080fd5b620003a9856200036a565b9350620003b9602086016200036a565b9250620003c9604086016200036a565b9150620003d9606086016200036a565b905092959194509250565b600181811c90821680620003f957607f821691505b602082108114156200041b57634e487b7160e01b600052602260045260246000fd5b50919050565b61342480620004316000396000f3fe608060405234801561001057600080fd5b506004361061028a5760003560e01c80638ec8c5041161015c578063cf3a421f116100ce578063e985e9c511610087578063e985e9c51461069f578063ecaf822a146106db578063ee1ef07e146106ee578063f7d9757714610701578063f86c9e9a14610714578063ff1644d81461072757600080fd5b8063cf3a421f146105fe578063d547741f14610626578063e26c523c14610639578063e5a6b10f14610659578063e75722301461066c578063e7d6fbbf1461067f57600080fd5b8063a314fb1611610120578063a314fb1614610535578063ac9650d81461055c578063b4f80eb91461057c578063b88d4fde146105c5578063c41a360a146105d8578063c87b56dd146105eb57600080fd5b80638ec8c504146104ec57806391d14854146104ff57806395d89b4114610512578063a217fddf1461051a578063a22cb4651461052257600080fd5b80632f2ff15d11610200578063598647f8116101b9578063598647f81461043d5780635d474404146104505780636352211e1461047f57806370a0823114610492578063769ac726146104a557806380057b9a146104cc57600080fd5b80632f2ff15d146103b15780632f745c59146103c457806336568abe146103d757806342842e0e146103ea5780634d7c7dc7146103fd5780634f6ccce71461042a57600080fd5b806310ac4e741161025257806310ac4e741461032d57806318160ddd146103405780631d8d0f481461034857806323b872dd14610368578063242d81cd1461037b578063248a9ca31461038e57600080fd5b806301ffc9a71461028f57806306fdde03146102b7578063081812fc146102cc578063095ea7b3146102f7578063099da37f1461030c575b600080fd5b6102a261029d366004612bbe565b61073a565b60405190151581526020015b60405180910390f35b6102bf610765565b6040516102ae9190612c33565b6102df6102da366004612c46565b6107f7565b6040516001600160a01b0390911681526020016102ae565b61030a610305366004612c76565b610884565b005b61031f61031a366004612c46565b61099a565b6040519081526020016102ae565b61031f61033b366004612c46565b6109ca565b600b5461031f565b61031f610356366004612c46565b60126020526000908152604090205481565b61030a610376366004612ca0565b6109f6565b61030a610389366004612cdc565b610a4e565b61031f61039c366004612c46565b6000908152600a602052604090206001015490565b61030a6103bf366004612cfe565b610ac9565b61031f6103d2366004612c76565b610aef565b61030a6103e5366004612cfe565b610b85565b61030a6103f8366004612ca0565b610c03565b600e54600f5460105461040f92919083565b604080519384526020840192909252908201526060016102ae565b61031f610438366004612c46565b610c1e565b61030a61044b366004612cdc565b610cb1565b61040f61045e366004612c46565b600d6020526000908152604090208054600182015460029092015490919083565b6102df61048d366004612c46565b611011565b61031f6104a0366004612d2a565b611088565b61031f7f27f406f19fd1b378cfb619bc553f0cd86d17e85e38ecad46997fb68ad17b730781565b61031f6104da366004612c46565b60009081526012602052604090205490565b6102a26104fa366004612c46565b61110f565b6102a261050d366004612cfe565b61112f565b6102bf61115a565b61031f600081565b61030a610530366004612d53565b611169565b61031f7f07f0a275418c306f0387154a78b34319faf760726ea38247d69f21825e8947a681565b61056f61056a366004612d8a565b611174565b6040516102ae9190612dff565b61058f61058a366004612c46565b611269565b6040805196875260208701959095529385019290925260608401526001600160a01b0316608083015260a082015260c0016102ae565b61030a6105d3366004612e77565b6112c0565b6102df6105e6366004612c46565b61131a565b6102bf6105f9366004612c46565b611339565b61061161060c366004612c46565b611411565b604080519283529015156020830152016102ae565b61030a610634366004612cfe565b611565565b61064c610647366004612f53565b61158b565b6040516102ae9190612f86565b600c546102df906001600160a01b031681565b61031f61067a366004612c46565b611698565b61031f61068d366004612fd9565b60116020526000908152604090205481565b6102a26106ad366004612ff4565b6001600160a01b03918216600090815260056020908152604080832093909416825291909152205460ff1690565b61030a6106e936600461301e565b6116ec565b61030a6106fc366004612c46565b61179a565b61030a61070f366004612cdc565b6118a2565b61030a610722366004612d2a565b6118ff565b61030a61073536600461303a565b6119bb565b60006001600160e01b03198216632f0ca06b60e01b148061075f575061075f826119d9565b92915050565b6060600080546107749061306c565b80601f01602080910402602001604051908101604052809291908181526020018280546107a09061306c565b80156107ed5780601f106107c2576101008083540402835291602001916107ed565b820191906000526020600020905b8154815290600101906020018083116107d057829003601f168201915b5050505050905090565b6000610802826119fe565b6108685760405162461bcd60e51b815260206004820152602c60248201527f4552433732313a20617070726f76656420717565727920666f72206e6f6e657860448201526b34b9ba32b73a103a37b5b2b760a11b60648201526084015b60405180910390fd5b506000908152600460205260409020546001600160a01b031690565b600061088f82611011565b9050806001600160a01b0316836001600160a01b031614156108fd5760405162461bcd60e51b815260206004820152602160248201527f4552433732313a20617070726f76616c20746f2063757272656e74206f776e656044820152603960f91b606482015260840161085f565b336001600160a01b0382161480610919575061091981336106ad565b61098b5760405162461bcd60e51b815260206004820152603860248201527f4552433732313a20617070726f76652063616c6c6572206973206e6f74206f7760448201527f6e6572206e6f7220617070726f76656420666f7220616c6c0000000000000000606482015260840161085f565b6109958383611a1b565b505050565b60006109a5826119fe565b6109c157604051626f708760e21b815260040160405180910390fd5b61075f82611a89565b6000818152600d6020526040812060020154600b54600e546109ec91906130d3565b61075f91906130e7565b610a003382611afc565b610a1c576040516282b42960e81b815260040160405180910390fd5b6000610a2782611be6565b90508015610a3f57610a3a848484611c98565b610a48565b610a4882611e3f565b50505050565b610a583383611afc565b610a74576040516282b42960e81b815260040160405180910390fd5b6000828152601260205260409020819055610a8e82611011565b6001600160a01b031681837f8da7074ffa2c919782faaf9705c7edfe7f814551a91b91aed83ee2ef5ac6af2760405160405180910390a45050565b6000828152600a6020526040902060010154610ae58133611ee6565b6109958383611f4a565b6000610afa83611088565b8210610b5c5760405162461bcd60e51b815260206004820152602b60248201527f455243373231456e756d657261626c653a206f776e657220696e646578206f7560448201526a74206f6620626f756e647360a81b606482015260840161085f565b506001600160a01b03919091166000908152600660209081526040808320938352929052205490565b6001600160a01b0381163314610bf55760405162461bcd60e51b815260206004820152602f60248201527f416363657373436f6e74726f6c3a2063616e206f6e6c792072656e6f756e636560448201526e103937b632b9903337b91039b2b63360891b606482015260840161085f565b610bff8282611fd0565b5050565b610995838383604051806020016040528060008152506112c0565b6000610c2960085490565b8210610c8c5760405162461bcd60e51b815260206004820152602c60248201527f455243373231456e756d657261626c653a20676c6f62616c20696e646578206f60448201526b7574206f6620626f756e647360a01b606482015260840161085f565b60088281548110610c9f57610c9f6130fe565b90600052602060002001549050919050565b600260005260116020527f08037d7b151cc412d25674a4e66b334d9ae9d2e5517a7feaae5cdb828bf1c62854610ce6836119fe565b15610ee3576000610cf684611011565b90506001600160a01b038116331415610d0f5750505050565b6000848152600d602052604081205490610d2886611be6565b90508015610dce5781851015610d5157604051636dddf41160e11b815260040160405180910390fd5b600c546040516323b872dd60e01b81526001600160a01b03909116906323b872dd90610d859033908790879060040161312a565b6020604051808303816000875af1158015610da4573d6000803e3d6000fd5b505050506040513d601f19601f82011682018060405250810190610dc8919061314e565b50610e72565b83851015610def57604051636dddf41160e11b815260040160405180910390fd5b600c546040516323b872dd60e01b81526001600160a01b03909116906323b872dd90610e239033903090899060040161312a565b6020604051808303816000875af1158015610e42573d6000803e3d6000fd5b505050506040513d601f19601f82011682018060405250810190610e66919061314e565b50610e72863386612037565b610e8d8333886040518060200160405280600081525061212c565b336001600160a01b0316836001600160a01b0316877ff828f9266a867e728bd505090b4db2d33e1935c90d43a9fe0a6906eaf30bc48b85604051610ed391815260200190565b60405180910390a4505050505050565b600b54831180610ef35750600183105b15610f1f57600b5460405163168a450960e21b815260016004820152602481019190915260440161085f565b80821015610f4057604051636dddf41160e11b815260040160405180910390fd5b600c546040516323b872dd60e01b81526001600160a01b03909116906323b872dd90610f749033903090869060040161312a565b6020604051808303816000875af1158015610f93573d6000803e3d6000fd5b505050506040513d601f19601f82011682018060405250810190610fb7919061314e565b50610fc3833383612037565b610fcd338461215f565b6040516000808252339185907ff828f9266a867e728bd505090b4db2d33e1935c90d43a9fe0a6906eaf30bc48b9060200160405180910390a4610995838333612179565b6000818152600260205260408120546001600160a01b03168061075f5760405162461bcd60e51b815260206004820152602960248201527f4552433732313a206f776e657220717565727920666f72206e6f6e657869737460448201526832b73a103a37b5b2b760b91b606482015260840161085f565b60006001600160a01b0382166110f35760405162461bcd60e51b815260206004820152602a60248201527f4552433732313a2062616c616e636520717565727920666f7220746865207a65604482015269726f206164647265737360b01b606482015260840161085f565b506001600160a01b031660009081526003602052604090205490565b600061111a82611be6565b90508061112a5761112a82611e3f565b919050565b6000918252600a602090815260408084206001600160a01b0393909316845291905290205460ff1690565b6060600180546107749061306c565b610bff3383836121c9565b60608167ffffffffffffffff81111561118f5761118f612e61565b6040519080825280602002602001820160405280156111c257816020015b60608152602001906001900390816111ad5790505b50905060005b8281101561126257611232308585848181106111e6576111e66130fe565b90506020028101906111f8919061316b565b8080601f01602080910402602001604051908101604052809392919081815260200183838082843760009201919091525061229092505050565b828281518110611244576112446130fe565b6020026020010181905250808061125a906131b9565b9150506111c8565b5092915050565b6000818152600d602052604081208054600190910154829182918291829182918891611294836109ca565b61129d8b61131a565b60009b8c5260126020526040909b2054939b929a91995097509550909350915050565b6112ca3383611afc565b6112e6576040516282b42960e81b815260040160405180910390fd5b60006112f183611be6565b9050801561130a576113058585858561212c565b611313565b61131383611e3f565b5050505050565b6000611325826119fe565b61133057600061075f565b61075f82611011565b6060611344826119fe565b6113a85760405162461bcd60e51b815260206004820152602f60248201527f4552433732314d657461646174613a2055524920717565727920666f72206e6f60448201526e3732bc34b9ba32b73a103a37b5b2b760891b606482015260840161085f565b60006113bf60408051602081019091526000815290565b905060008151116113df576040518060200160405280600081525061140a565b806113e9846122b5565b6040516020016113fa9291906131d4565b6040516020818303038152906040525b9392505050565b600080600061141f8461099a565b9050801561155957600061143285611011565b600c54604051636eb1769f60e11b81526001600160a01b0380841660048301523060248301529293506000929091169063dd62ed3e90604401602060405180830381865afa158015611488573d6000803e3d6000fd5b505050506040513d601f19601f820116820180604052508101906114ac9190613203565b600c546040516370a0823160e01b81526001600160a01b038581166004830152929350600092909116906370a0823190602401602060405180830381865afa1580156114fc573d6000803e3d6000fd5b505050506040513d601f19601f820116820180604052508101906115209190613203565b905060008183106115315781611533565b825b905084811061154b5750929660009650945050505050565b976001975095505050505050565b50600093849350915050565b6000828152600a60205260409020600101546115818133611ee6565b6109958383611fd0565b6060826115a7575060408051600081526020810190915261140a565b60006115b285611088565b90508083106115d157505060408051600081526020810190915261140a565b60006115dd84836130e7565b905060008582116115ee57816115f0565b855b905060008167ffffffffffffffff81111561160d5761160d612e61565b604051908082528060200260200182016040528015611636578160200160208202803683370190505b50905060005b8281101561168c576000611650888361321c565b905061165c8a82610aef565b83838151811061166e5761166e6130fe565b60209081029190910101525080611684816131b9565b91505061163c565b50979650505050505050565b60006116a3826119fe565b6116d857600260005260116020527f08037d7b151cc412d25674a4e66b334d9ae9d2e5517a7feaae5cdb828bf1c6285461075f565b6000828152600d602052604090205461075f565b7f07f0a275418c306f0387154a78b34319faf760726ea38247d69f21825e8947a66117178133611ee6565b816011600085600281111561172e5761172e613114565b600281111561173f5761173f613114565b815260208101919091526040016000205582600281111561176257611762613114565b6040518381527f90e64b63a2c952a97e60fcb9bdb464e5e76d2920683504331028687f0cd6643b9060200160405180910390a2505050565b60006117a5826109ca565b90508015610bff576000828152600d6020526040812060020180548392906117ce90849061321c565b90915550600090506117df83611011565b600c5460405163a9059cbb60e01b81526001600160a01b0380841660048301526024820186905292935091169063a9059cbb906044016020604051808303816000875af1158015611834573d6000803e3d6000fd5b505050506040513d601f19601f82011682018060405250810190611858919061314e565b50806001600160a01b0316837fa760fe80056c46d089c37a35d9dbe762141a463ae0eb8235522d27ab9595286d8460405161189591815260200190565b60405180910390a3505050565b6118ac3383611afc565b6118c8576040516282b42960e81b815260040160405180910390fd5b6000828152600d60205260409020548114156118e2575050565b60006118ed8361110f565b905080156109955761099583836123b3565b7f27f406f19fd1b378cfb619bc553f0cd86d17e85e38ecad46997fb68ad17b730761192a8133611ee6565b601054600f5460009161193c916130e7565b600f54601055600c5460405163a9059cbb60e01b81526001600160a01b0386811660048301526024820184905292935091169063a9059cbb906044016020604051808303816000875af1158015611997573d6000803e3d6000fd5b505050506040513d601f19601f82011682018060405250810190610a48919061314e565b6119c58484610cb1565b6119cf84836118a2565b610a488482610a4e565b60006001600160e01b03198216637965db0b60e01b148061075f575061075f826123c6565b6000908152600260205260409020546001600160a01b0316151590565b600081815260046020526040902080546001600160a01b0319166001600160a01b0384169081179091558190611a5082611011565b6001600160a01b03167f8c5be1e5ebec7d5bd14f71427d1e84f3dd0314c0f7b2291e5b200ac8c7c3b92560405160405180910390a45050565b6000818152600d60205260408120600101546298968090611aaa90436130e7565b6000805260116020527f4ad3b33220dddc71b994a52d72c06b10862965f7d926534c05c00fb7e819e7b754611ade85611698565b611ae89190613234565b611af29190613234565b61075f91906130d3565b6000611b07826119fe565b611b685760405162461bcd60e51b815260206004820152602c60248201527f4552433732313a206f70657261746f7220717565727920666f72206e6f6e657860448201526b34b9ba32b73a103a37b5b2b760a11b606482015260840161085f565b6000611b7383611011565b9050806001600160a01b0316846001600160a01b03161480611bae5750836001600160a01b0316611ba3846107f7565b6001600160a01b0316145b80611bde57506001600160a01b0380821660009081526005602090815260408083209388168352929052205460ff165b949350505050565b6000806000611bf484611411565b90925090508115611c90576000611c0a85611011565b600c546040516323b872dd60e01b81529192506001600160a01b0316906323b872dd90611c3f9084903090889060040161312a565b6020604051808303816000875af1158015611c5e573d6000803e3d6000fd5b505050506040513d601f19601f82011682018060405250810190611c82919061314e565b50611c8e858285612037565b505b159392505050565b826001600160a01b0316611cab82611011565b6001600160a01b031614611d0f5760405162461bcd60e51b815260206004820152602560248201527f4552433732313a207472616e736665722066726f6d20696e636f72726563742060448201526437bbb732b960d91b606482015260840161085f565b6001600160a01b038216611d715760405162461bcd60e51b8152602060048201526024808201527f4552433732313a207472616e7366657220746f20746865207a65726f206164646044820152637265737360e01b606482015260840161085f565b611d7c8383836123eb565b611d87600082611a1b565b6001600160a01b0383166000908152600360205260408120805460019290611db09084906130e7565b90915550506001600160a01b0382166000908152600360205260408120805460019290611dde90849061321c565b909155505060008181526002602052604080822080546001600160a01b0319166001600160a01b0386811691821790925591518493918716917fddf252ad1be2c89b69c2b068fc378daa952ba7f163c4a11628f55a4df523b3ef91a4505050565b6000611e4a82611011565b9050611e58816000846123eb565b611e63600083611a1b565b6001600160a01b0381166000908152600360205260408120805460019290611e8c9084906130e7565b909155505060008281526002602052604080822080546001600160a01b0319169055518391906001600160a01b038416907fddf252ad1be2c89b69c2b068fc378daa952ba7f163c4a11628f55a4df523b3ef908390a45050565b611ef0828261112f565b610bff57611f08816001600160a01b031660146124a3565b611f138360206124a3565b604051602001611f24929190613253565b60408051601f198184030181529082905262461bcd60e51b825261085f91600401612c33565b611f54828261112f565b610bff576000828152600a602090815260408083206001600160a01b03851684529091529020805460ff19166001179055611f8c3390565b6001600160a01b0316816001600160a01b0316837f2f8788117e7eff1d82e926ec794901d17c78024a50270940304540a733656f0d60405160405180910390a45050565b611fda828261112f565b15610bff576000828152600a602090815260408083206001600160a01b0385168085529252808320805460ff1916905551339285917ff6391f5c32d9c69d2a47ea670b442974b53935d1edc7fd64eb21e047a839171b9190a45050565b600160005260116020527f17bc176d2408558f6e4111feebc3cab4e16b63e967be91cde721f4c8a488b5525461271061207082826130e7565b61207a9084613234565b61208491906130d3565b600e805460009061209690849061321c565b9091555061271090506120a98284613234565b6120b391906130d3565b600f80546000906120c590849061321c565b90915550506000848152600d60205260409081902043600190910155516001600160a01b0384169085907fc5790222911f43ca7d78c4f5ef5cb5a21d7fda4d923d433b80e7db9c295de88a9061211e9086815260200190565b60405180910390a350505050565b612137848484611c98565b6121438484848461263f565b610a485760405162461bcd60e51b815260040161085f906132c8565b610bff82826040518060200160405280600081525061273d565b6000838152600d602052604090819020839055516001600160a01b0382169084907f75a0543aefc16d03b25751bdf0b5a2fbbec05c6436fd60b038d40f5b7d1def83906118959086815260200190565b816001600160a01b0316836001600160a01b0316141561222b5760405162461bcd60e51b815260206004820152601960248201527f4552433732313a20617070726f766520746f2063616c6c657200000000000000604482015260640161085f565b6001600160a01b03838116600081815260056020908152604080832094871680845294825291829020805460ff191686151590811790915591519182527f17307eab39ab6107e8899845ad3d59bd9653f200f220920489ca2b5937696c319101611895565b606061140a83836040518060600160405280602781526020016133c860279139612770565b6060816122d95750506040805180820190915260018152600360fc1b602082015290565b8160005b811561230357806122ed816131b9565b91506122fc9050600a836130d3565b91506122dd565b60008167ffffffffffffffff81111561231e5761231e612e61565b6040519080825280601f01601f191660200182016040528015612348576020820181803683370190505b5090505b8415611bde5761235d6001836130e7565b915061236a600a8661331a565b61237590603061321c565b60f81b81838151811061238a5761238a6130fe565b60200101906001600160f81b031916908160001a9053506123ac600a866130d3565b945061234c565b610bff82826123c185611011565b612179565b60006001600160e01b0319821663780e9d6360e01b148061075f575061075f8261284d565b6001600160a01b0383166124465761244181600880546000838152600960205260408120829055600182018355919091527ff3f7a9fe364faab93b216da50a3214154f22a0a2b415b23a84c8169e8b636ee30155565b612469565b816001600160a01b0316836001600160a01b03161461246957612469838261289d565b6001600160a01b038216612480576109958161293a565b826001600160a01b0316826001600160a01b0316146109955761099582826129e9565b606060006124b2836002613234565b6124bd90600261321c565b67ffffffffffffffff8111156124d5576124d5612e61565b6040519080825280601f01601f1916602001820160405280156124ff576020820181803683370190505b509050600360fc1b8160008151811061251a5761251a6130fe565b60200101906001600160f81b031916908160001a905350600f60fb1b81600181518110612549576125496130fe565b60200101906001600160f81b031916908160001a905350600061256d846002613234565b61257890600161321c565b90505b60018111156125f0576f181899199a1a9b1b9c1cb0b131b232b360811b85600f16601081106125ac576125ac6130fe565b1a60f81b8282815181106125c2576125c26130fe565b60200101906001600160f81b031916908160001a90535060049490941c936125e98161332e565b905061257b565b50831561140a5760405162461bcd60e51b815260206004820181905260248201527f537472696e67733a20686578206c656e67746820696e73756666696369656e74604482015260640161085f565b60006001600160a01b0384163b1561273257604051630a85bd0160e11b81526001600160a01b0385169063150b7a0290612683903390899088908890600401613345565b6020604051808303816000875af19250505080156126be575060408051601f3d908101601f191682019092526126bb91810190613378565b60015b612718573d8080156126ec576040519150601f19603f3d011682016040523d82523d6000602084013e6126f1565b606091505b5080516127105760405162461bcd60e51b815260040161085f906132c8565b805181602001fd5b6001600160e01b031916630a85bd0160e11b149050611bde565b506001949350505050565b6127478383612a2d565b612754600084848461263f565b6109955760405162461bcd60e51b815260040161085f906132c8565b60606001600160a01b0384163b6127d85760405162461bcd60e51b815260206004820152602660248201527f416464726573733a2064656c65676174652063616c6c20746f206e6f6e2d636f6044820152651b9d1c9858dd60d21b606482015260840161085f565b600080856001600160a01b0316856040516127f39190613395565b600060405180830381855af49150503d806000811461282e576040519150601f19603f3d011682016040523d82523d6000602084013e612833565b606091505b5091509150612843828286612b6c565b9695505050505050565b60006001600160e01b031982166380ac58cd60e01b148061287e57506001600160e01b03198216635b5e139f60e01b145b8061075f57506301ffc9a760e01b6001600160e01b031983161461075f565b600060016128aa84611088565b6128b491906130e7565b600083815260076020526040902054909150808214612907576001600160a01b03841660009081526006602090815260408083208584528252808320548484528184208190558352600790915290208190555b5060009182526007602090815260408084208490556001600160a01b039094168352600681528383209183525290812055565b60085460009061294c906001906130e7565b60008381526009602052604081205460088054939450909284908110612974576129746130fe565b906000526020600020015490508060088381548110612995576129956130fe565b60009182526020808320909101929092558281526009909152604080822084905585825281205560088054806129cd576129cd6133b1565b6001900381819060005260206000200160009055905550505050565b60006129f483611088565b6001600160a01b039093166000908152600660209081526040808320868452825280832085905593825260079052919091209190915550565b6001600160a01b038216612a835760405162461bcd60e51b815260206004820181905260248201527f4552433732313a206d696e7420746f20746865207a65726f2061646472657373604482015260640161085f565b612a8c816119fe565b15612ad95760405162461bcd60e51b815260206004820152601c60248201527f4552433732313a20746f6b656e20616c7265616479206d696e74656400000000604482015260640161085f565b612ae5600083836123eb565b6001600160a01b0382166000908152600360205260408120805460019290612b0e90849061321c565b909155505060008181526002602052604080822080546001600160a01b0319166001600160a01b03861690811790915590518392907fddf252ad1be2c89b69c2b068fc378daa952ba7f163c4a11628f55a4df523b3ef908290a45050565b60608315612b7b57508161140a565b825115612b8b5782518084602001fd5b8160405162461bcd60e51b815260040161085f9190612c33565b6001600160e01b031981168114612bbb57600080fd5b50565b600060208284031215612bd057600080fd5b813561140a81612ba5565b60005b83811015612bf6578181015183820152602001612bde565b83811115610a485750506000910152565b60008151808452612c1f816020860160208601612bdb565b601f01601f19169290920160200192915050565b60208152600061140a6020830184612c07565b600060208284031215612c5857600080fd5b5035919050565b80356001600160a01b038116811461112a57600080fd5b60008060408385031215612c8957600080fd5b612c9283612c5f565b946020939093013593505050565b600080600060608486031215612cb557600080fd5b612cbe84612c5f565b9250612ccc60208501612c5f565b9150604084013590509250925092565b60008060408385031215612cef57600080fd5b50508035926020909101359150565b60008060408385031215612d1157600080fd5b82359150612d2160208401612c5f565b90509250929050565b600060208284031215612d3c57600080fd5b61140a82612c5f565b8015158114612bbb57600080fd5b60008060408385031215612d6657600080fd5b612d6f83612c5f565b91506020830135612d7f81612d45565b809150509250929050565b60008060208385031215612d9d57600080fd5b823567ffffffffffffffff80821115612db557600080fd5b818501915085601f830112612dc957600080fd5b813581811115612dd857600080fd5b8660208260051b8501011115612ded57600080fd5b60209290920196919550909350505050565b6000602080830181845280855180835260408601915060408160051b870101925083870160005b82811015612e5457603f19888603018452612e42858351612c07565b94509285019290850190600101612e26565b5092979650505050505050565b634e487b7160e01b600052604160045260246000fd5b60008060008060808587031215612e8d57600080fd5b612e9685612c5f565b9350612ea460208601612c5f565b925060408501359150606085013567ffffffffffffffff80821115612ec857600080fd5b818701915087601f830112612edc57600080fd5b813581811115612eee57612eee612e61565b604051601f8201601f19908116603f01168101908382118183101715612f1657612f16612e61565b816040528281528a6020848701011115612f2f57600080fd5b82602086016020830137600060208483010152809550505050505092959194509250565b600080600060608486031215612f6857600080fd5b612f7184612c5f565b95602085013595506040909401359392505050565b6020808252825182820181905260009190848201906040850190845b81811015612fbe57835183529284019291840191600101612fa2565b50909695505050505050565b80356003811061112a57600080fd5b600060208284031215612feb57600080fd5b61140a82612fca565b6000806040838503121561300757600080fd5b61301083612c5f565b9150612d2160208401612c5f565b6000806040838503121561303157600080fd5b612c9283612fca565b6000806000806080858703121561305057600080fd5b5050823594602084013594506040840135936060013592509050565b600181811c9082168061308057607f821691505b602082108114156130a157634e487b7160e01b600052602260045260246000fd5b50919050565b634e487b7160e01b600052601260045260246000fd5b634e487b7160e01b600052601160045260246000fd5b6000826130e2576130e26130a7565b500490565b6000828210156130f9576130f96130bd565b500390565b634e487b7160e01b600052603260045260246000fd5b634e487b7160e01b600052602160045260246000fd5b6001600160a01b039384168152919092166020820152604081019190915260600190565b60006020828403121561316057600080fd5b815161140a81612d45565b6000808335601e1984360301811261318257600080fd5b83018035915067ffffffffffffffff82111561319d57600080fd5b6020019150368190038213156131b257600080fd5b9250929050565b60006000198214156131cd576131cd6130bd565b5060010190565b600083516131e6818460208801612bdb565b8351908301906131fa818360208801612bdb565b01949350505050565b60006020828403121561321557600080fd5b5051919050565b6000821982111561322f5761322f6130bd565b500190565b600081600019048311821515161561324e5761324e6130bd565b500290565b7f416363657373436f6e74726f6c3a206163636f756e742000000000000000000081526000835161328b816017850160208801612bdb565b7001034b99036b4b9b9b4b733903937b6329607d1b60179184019182015283516132bc816028840160208801612bdb565b01602801949350505050565b60208082526032908201527f4552433732313a207472616e7366657220746f206e6f6e20455243373231526560408201527131b2b4bb32b91034b6b83632b6b2b73a32b960711b606082015260800190565b600082613329576133296130a7565b500690565b60008161333d5761333d6130bd565b506000190190565b6001600160a01b038581168252841660208201526040810183905260806060820181905260009061284390830184612c07565b60006020828403121561338a57600080fd5b815161140a81612ba5565b600082516133a7818460208701612bdb565b9190910192915050565b634e487b7160e01b600052603160045260246000fdfe416464726573733a206c6f772d6c6576656c2064656c65676174652063616c6c206661696c6564a2646970667358221220a5feb4ffe5ce83fa782819d6896ed4abc4b69813d78781a2228d9b668a26e5b064736f6c634300080b0033",
    "linkReferences": {}
  }
}