{
  "abi": [
    {
      "inputs": [
        {
          "internalType": "string",
          "name": "propertyName_",
          "type": "string"
        },
        {
          "internalType": "string",
          "name": "propertySymbol_",
          "type": "string"
        },
        {
          "internalType": "uint256",
          "name": "totalSupply_",
          "type": "uint256"
        },
        {
          "internalType": "uint256",
          "name": "taxRate_",
          "type": "uint256"
        },
        {
          "internalType": "uint256",
          "name": "treasuryShare_",
          "type": "uint256"
        },
        {
          "internalType": "uint256",
          "name": "mintTax_",
          "type": "uint256"
        },
        {
          "internalType": "address",
          "name": "currencyAddress_",
          "type": "address"
        }
      ],
      "stateMutability": "nonpayable",
      "type": "constructor"
    },
    {
      "inputs": [
        {
          "internalType": "uint256",
          "name": "min",
          "type": "uint256"
        },
        {
          "internalType": "uint256",
          "name": "max",
          "type": "uint256"
        }
      ],
      "name": "InvalidTokenId",
      "type": "error"
    },
    {
      "anonymous": false,
      "inputs": [
        {
          "indexed": true,
          "internalType": "address",
          "name": "owner",
          "type": "address"
        },
        {
          "indexed": true,
          "internalType": "address",
          "name": "approved",
          "type": "address"
        },
        {
          "indexed": true,
          "internalType": "uint256",
          "name": "tokenId",
          "type": "uint256"
        }
      ],
      "name": "Approval",
      "type": "event"
    },
    {
      "anonymous": false,
      "inputs": [
        {
          "indexed": true,
          "internalType": "address",
          "name": "owner",
          "type": "address"
        },
        {
          "indexed": true,
          "internalType": "address",
          "name": "operator",
          "type": "address"
        },
        {
          "indexed": false,
          "internalType": "bool",
          "name": "approved",
          "type": "bool"
        }
      ],
      "name": "ApprovalForAll",
      "type": "event"
    },
    {
      "anonymous": false,
      "inputs": [
        {
          "indexed": true,
          "internalType": "uint256",
          "name": "tokenId",
          "type": "uint256"
        },
        {
          "indexed": true,
          "internalType": "uint256",
          "name": "color",
          "type": "uint256"
        },
        {
          "indexed": true,
          "internalType": "address",
          "name": "owner",
          "type": "address"
        }
      ],
      "name": "Color",
      "type": "event"
    },
    {
      "anonymous": false,
      "inputs": [
        {
          "indexed": true,
          "internalType": "enum ITheSpaceRegistry.ConfigOptions",
          "name": "option",
          "type": "uint8"
        },
        {
          "indexed": false,
          "internalType": "uint256",
          "name": "value",
          "type": "uint256"
        }
      ],
      "name": "Config",
      "type": "event"
    },
    {
      "anonymous": false,
      "inputs": [
        {
          "indexed": true,
          "internalType": "uint256",
          "name": "tokenId",
          "type": "uint256"
        },
        {
          "indexed": true,
          "internalType": "address",
          "name": "from",
          "type": "address"
        },
        {
          "indexed": true,
          "internalType": "address",
          "name": "to",
          "type": "address"
        },
        {
          "indexed": false,
          "internalType": "uint256",
          "name": "amount",
          "type": "uint256"
        }
      ],
      "name": "Deal",
      "type": "event"
    },
    {
      "anonymous": false,
      "inputs": [
        {
          "indexed": true,
          "internalType": "address",
          "name": "previousOwner",
          "type": "address"
        },
        {
          "indexed": true,
          "internalType": "address",
          "name": "newOwner",
          "type": "address"
        }
      ],
      "name": "OwnershipTransferred",
      "type": "event"
    },
    {
      "anonymous": false,
      "inputs": [
        {
          "indexed": true,
          "internalType": "uint256",
          "name": "tokenId",
          "type": "uint256"
        },
        {
          "indexed": false,
          "internalType": "uint256",
          "name": "price",
          "type": "uint256"
        },
        {
          "indexed": true,
          "internalType": "address",
          "name": "owner",
          "type": "address"
        }
      ],
      "name": "Price",
      "type": "event"
    },
    {
      "anonymous": false,
      "inputs": [
        {
          "indexed": true,
          "internalType": "uint256",
          "name": "tokenId",
          "type": "uint256"
        },
        {
          "indexed": true,
          "internalType": "address",
          "name": "taxpayer",
          "type": "address"
        },
        {
          "indexed": false,
          "internalType": "uint256",
          "name": "amount",
          "type": "uint256"
        }
      ],
      "name": "Tax",
      "type": "event"
    },
    {
      "anonymous": false,
      "inputs": [
        {
          "indexed": false,
          "internalType": "uint256",
          "name": "previousSupply",
          "type": "uint256"
        },
        {
          "indexed": false,
          "internalType": "uint256",
          "name": "newSupply",
          "type": "uint256"
        }
      ],
      "name": "TotalSupply",
      "type": "event"
    },
    {
      "anonymous": false,
      "inputs": [
        {
          "indexed": true,
          "internalType": "address",
          "name": "from",
          "type": "address"
        },
        {
          "indexed": true,
          "internalType": "address",
          "name": "to",
          "type": "address"
        },
        {
          "indexed": true,
          "internalType": "uint256",
          "name": "tokenId",
          "type": "uint256"
        }
      ],
      "name": "Transfer",
      "type": "event"
    },
    {
      "anonymous": false,
      "inputs": [
        {
          "indexed": true,
          "internalType": "address",
          "name": "recipient",
          "type": "address"
        },
        {
          "indexed": false,
          "internalType": "uint256",
          "name": "amount",
          "type": "uint256"
        }
      ],
      "name": "Treasury",
      "type": "event"
    },
    {
      "anonymous": false,
      "inputs": [
        {
          "indexed": true,
          "internalType": "uint256",
          "name": "tokenId",
          "type": "uint256"
        },
        {
          "indexed": true,
          "internalType": "address",
          "name": "recipient",
          "type": "address"
        },
        {
          "indexed": false,
          "internalType": "uint256",
          "name": "amount",
          "type": "uint256"
        }
      ],
      "name": "UBI",
      "type": "event"
    },
    {
      "inputs": [
        {
          "internalType": "address",
          "name": "to",
          "type": "address"
        },
        {
          "internalType": "uint256",
          "name": "tokenId",
          "type": "uint256"
        }
      ],
      "name": "approve",
      "outputs": [],
      "stateMutability": "nonpayable",
      "type": "function"
    },
    {
      "inputs": [
        {
          "internalType": "address",
          "name": "owner",
          "type": "address"
        }
      ],
      "name": "balanceOf",
      "outputs": [
        {
          "internalType": "uint256",
          "name": "",
          "type": "uint256"
        }
      ],
      "stateMutability": "view",
      "type": "function"
    },
    {
      "inputs": [
        {
          "internalType": "uint256",
          "name": "tokenId_",
          "type": "uint256"
        }
      ],
      "name": "burn",
      "outputs": [],
      "stateMutability": "nonpayable",
      "type": "function"
    },
    {
      "inputs": [],
      "name": "currency",
      "outputs": [
        {
          "internalType": "contract ERC20",
          "name": "",
          "type": "address"
        }
      ],
      "stateMutability": "view",
      "type": "function"
    },
    {
      "inputs": [
        {
          "internalType": "uint256",
          "name": "tokenId_",
          "type": "uint256"
        },
        {
          "internalType": "address",
          "name": "from_",
          "type": "address"
        },
        {
          "internalType": "address",
          "name": "to_",
          "type": "address"
        },
        {
          "internalType": "uint256",
          "name": "amount_",
          "type": "uint256"
        }
      ],
      "name": "emitDeal",
      "outputs": [],
      "stateMutability": "nonpayable",
      "type": "function"
    },
    {
      "inputs": [
        {
          "internalType": "uint256",
          "name": "tokenId_",
          "type": "uint256"
        },
        {
          "internalType": "uint256",
          "name": "price_",
          "type": "uint256"
        },
        {
          "internalType": "address",
          "name": "operator_",
          "type": "address"
        }
      ],
      "name": "emitPrice",
      "outputs": [],
      "stateMutability": "nonpayable",
      "type": "function"
    },
    {
      "inputs": [
        {
          "internalType": "uint256",
          "name": "tokenId_",
          "type": "uint256"
        },
        {
          "internalType": "address",
          "name": "taxpayer_",
          "type": "address"
        },
        {
          "internalType": "uint256",
          "name": "amount_",
          "type": "uint256"
        }
      ],
      "name": "emitTax",
      "outputs": [],
      "stateMutability": "nonpayable",
      "type": "function"
    },
    {
      "inputs": [
        {
          "internalType": "address",
          "name": "recipient_",
          "type": "address"
        },
        {
          "internalType": "uint256",
          "name": "amount_",
          "type": "uint256"
        }
      ],
      "name": "emitTreasury",
      "outputs": [],
      "stateMutability": "nonpayable",
      "type": "function"
    },
    {
      "inputs": [
        {
          "internalType": "uint256",
          "name": "tokenId_",
          "type": "uint256"
        },
        {
          "internalType": "address",
          "name": "recipient_",
          "type": "address"
        },
        {
          "internalType": "uint256",
          "name": "amount_",
          "type": "uint256"
        }
      ],
      "name": "emitUBI",
      "outputs": [],
      "stateMutability": "nonpayable",
      "type": "function"
    },
    {
      "inputs": [
        {
          "internalType": "uint256",
          "name": "tokenId_",
          "type": "uint256"
        }
      ],
      "name": "exists",
      "outputs": [
        {
          "internalType": "bool",
          "name": "",
          "type": "bool"
        }
      ],
      "stateMutability": "view",
      "type": "function"
    },
    {
      "inputs": [
        {
          "internalType": "uint256",
          "name": "tokenId",
          "type": "uint256"
        }
      ],
      "name": "getApproved",
      "outputs": [
        {
          "internalType": "address",
          "name": "",
          "type": "address"
        }
      ],
      "stateMutability": "view",
      "type": "function"
    },
    {
      "inputs": [
        {
          "internalType": "address",
          "name": "owner",
          "type": "address"
        },
        {
          "internalType": "address",
          "name": "operator",
          "type": "address"
        }
      ],
      "name": "isApprovedForAll",
      "outputs": [
        {
          "internalType": "bool",
          "name": "",
          "type": "bool"
        }
      ],
      "stateMutability": "view",
      "type": "function"
    },
    {
      "inputs": [
        {
          "internalType": "address",
          "name": "spender_",
          "type": "address"
        },
        {
          "internalType": "uint256",
          "name": "tokenId_",
          "type": "uint256"
        }
      ],
      "name": "isApprovedOrOwner",
      "outputs": [
        {
          "internalType": "bool",
          "name": "",
          "type": "bool"
        }
      ],
      "stateMutability": "view",
      "type": "function"
    },
    {
      "inputs": [
        {
          "internalType": "address",
          "name": "to_",
          "type": "address"
        },
        {
          "internalType": "uint256",
          "name": "tokenId_",
          "type": "uint256"
        }
      ],
      "name": "mint",
      "outputs": [],
      "stateMutability": "nonpayable",
      "type": "function"
    },
    {
      "inputs": [],
      "name": "name",
      "outputs": [
        {
          "internalType": "string",
          "name": "",
          "type": "string"
        }
      ],
      "stateMutability": "view",
      "type": "function"
    },
    {
      "inputs": [],
      "name": "owner",
      "outputs": [
        {
          "internalType": "address",
          "name": "",
          "type": "address"
        }
      ],
      "stateMutability": "view",
      "type": "function"
    },
    {
      "inputs": [
        {
          "internalType": "uint256",
          "name": "tokenId",
          "type": "uint256"
        }
      ],
      "name": "ownerOf",
      "outputs": [
        {
          "internalType": "address",
          "name": "",
          "type": "address"
        }
      ],
      "stateMutability": "view",
      "type": "function"
    },
    {
      "inputs": [
        {
          "internalType": "uint256",
          "name": "",
          "type": "uint256"
        }
      ],
      "name": "pixelColor",
      "outputs": [
        {
          "internalType": "uint256",
          "name": "",
          "type": "uint256"
        }
      ],
      "stateMutability": "view",
      "type": "function"
    },
    {
      "inputs": [],
      "name": "renounceOwnership",
      "outputs": [],
      "stateMutability": "nonpayable",
      "type": "function"
    },
    {
      "inputs": [
        {
          "internalType": "address",
          "name": "from_",
          "type": "address"
        },
        {
          "internalType": "address",
          "name": "to_",
          "type": "address"
        },
        {
          "internalType": "uint256",
          "name": "tokenId_",
          "type": "uint256"
        }
      ],
      "name": "safeTransferByMarket",
      "outputs": [],
      "stateMutability": "nonpayable",
      "type": "function"
    },
    {
      "inputs": [
        {
          "internalType": "address",
          "name": "from",
          "type": "address"
        },
        {
          "internalType": "address",
          "name": "to",
          "type": "address"
        },
        {
          "internalType": "uint256",
          "name": "tokenId",
          "type": "uint256"
        }
      ],
      "name": "safeTransferFrom",
      "outputs": [],
      "stateMutability": "nonpayable",
      "type": "function"
    },
    {
      "inputs": [
        {
          "internalType": "address",
          "name": "from_",
          "type": "address"
        },
        {
          "internalType": "address",
          "name": "to_",
          "type": "address"
        },
        {
          "internalType": "uint256",
          "name": "tokenId_",
          "type": "uint256"
        },
        {
          "internalType": "bytes",
          "name": "data_",
          "type": "bytes"
        }
      ],
      "name": "safeTransferFrom",
      "outputs": [],
      "stateMutability": "nonpayable",
      "type": "function"
    },
    {
      "inputs": [
        {
          "internalType": "address",
          "name": "operator",
          "type": "address"
        },
        {
          "internalType": "bool",
          "name": "approved",
          "type": "bool"
        }
      ],
      "name": "setApprovalForAll",
      "outputs": [],
      "stateMutability": "nonpayable",
      "type": "function"
    },
    {
      "inputs": [
        {
          "internalType": "uint256",
          "name": "tokenId_",
          "type": "uint256"
        },
        {
          "internalType": "uint256",
          "name": "color_",
          "type": "uint256"
        },
        {
          "internalType": "address",
          "name": "owner_",
          "type": "address"
        }
      ],
      "name": "setColor",
      "outputs": [],
      "stateMutability": "nonpayable",
      "type": "function"
    },
    {
      "inputs": [
        {
          "internalType": "enum ITheSpaceRegistry.ConfigOptions",
          "name": "option_",
          "type": "uint8"
        },
        {
          "internalType": "uint256",
          "name": "value_",
          "type": "uint256"
        }
      ],
      "name": "setTaxConfig",
      "outputs": [],
      "stateMutability": "nonpayable",
      "type": "function"
    },
    {
      "inputs": [
        {
          "internalType": "uint256",
          "name": "tokenId_",
          "type": "uint256"
        },
        {
          "internalType": "uint256",
          "name": "price_",
          "type": "uint256"
        },
        {
          "internalType": "uint256",
          "name": "lastTaxCollection_",
          "type": "uint256"
        },
        {
          "internalType": "uint256",
          "name": "ubiWithdrawn_",
          "type": "uint256"
        }
      ],
      "name": "setTokenRecord",
      "outputs": [],
      "stateMutability": "nonpayable",
      "type": "function"
    },
    {
      "inputs": [
        {
          "internalType": "uint256",
          "name": "totalSupply_",
          "type": "uint256"
        }
      ],
      "name": "setTotalSupply",
      "outputs": [],
      "stateMutability": "nonpayable",
      "type": "function"
    },
    {
      "inputs": [
        {
          "internalType": "uint256",
          "name": "accumulatedUBI_",
          "type": "uint256"
        },
        {
          "internalType": "uint256",
          "name": "accumulatedTreasury_",
          "type": "uint256"
        },
        {
          "internalType": "uint256",
          "name": "treasuryWithdrawn_",
          "type": "uint256"
        }
      ],
      "name": "setTreasuryRecord",
      "outputs": [],
      "stateMutability": "nonpayable",
      "type": "function"
    },
    {
      "inputs": [
        {
          "internalType": "bytes4",
          "name": "interfaceId",
          "type": "bytes4"
        }
      ],
      "name": "supportsInterface",
      "outputs": [
        {
          "internalType": "bool",
          "name": "",
          "type": "bool"
        }
      ],
      "stateMutability": "view",
      "type": "function"
    },
    {
      "inputs": [],
      "name": "symbol",
      "outputs": [
        {
          "internalType": "string",
          "name": "",
          "type": "string"
        }
      ],
      "stateMutability": "view",
      "type": "function"
    },
    {
      "inputs": [
        {
          "internalType": "enum ITheSpaceRegistry.ConfigOptions",
          "name": "",
          "type": "uint8"
        }
      ],
      "name": "taxConfig",
      "outputs": [
        {
          "internalType": "uint256",
          "name": "",
          "type": "uint256"
        }
      ],
      "stateMutability": "view",
      "type": "function"
    },
    {
      "inputs": [
        {
          "internalType": "uint256",
          "name": "index",
          "type": "uint256"
        }
      ],
      "name": "tokenByIndex",
      "outputs": [
        {
          "internalType": "uint256",
          "name": "",
          "type": "uint256"
        }
      ],
      "stateMutability": "view",
      "type": "function"
    },
    {
      "inputs": [
        {
          "internalType": "address",
          "name": "owner",
          "type": "address"
        },
        {
          "internalType": "uint256",
          "name": "index",
          "type": "uint256"
        }
      ],
      "name": "tokenOfOwnerByIndex",
      "outputs": [
        {
          "internalType": "uint256",
          "name": "",
          "type": "uint256"
        }
      ],
      "stateMutability": "view",
      "type": "function"
    },
    {
      "inputs": [
        {
          "internalType": "uint256",
          "name": "",
          "type": "uint256"
        }
      ],
      "name": "tokenRecord",
      "outputs": [
        {
          "internalType": "uint256",
          "name": "price",
          "type": "uint256"
        },
        {
          "internalType": "uint256",
          "name": "lastTaxCollection",
          "type": "uint256"
        },
        {
          "internalType": "uint256",
          "name": "ubiWithdrawn",
          "type": "uint256"
        }
      ],
      "stateMutability": "view",
      "type": "function"
    },
    {
      "inputs": [
        {
          "internalType": "uint256",
          "name": "tokenId_",
          "type": "uint256"
        }
      ],
      "name": "tokenURI",
      "outputs": [
        {
          "internalType": "string",
          "name": "uri",
          "type": "string"
        }
      ],
      "stateMutability": "view",
      "type": "function"
    },
    {
      "inputs": [],
      "name": "totalSupply",
      "outputs": [
        {
          "internalType": "uint256",
          "name": "",
          "type": "uint256"
        }
      ],
      "stateMutability": "view",
      "type": "function"
    },
    {
      "inputs": [
        {
          "internalType": "address",
          "name": "to_",
          "type": "address"
        },
        {
          "internalType": "uint256",
          "name": "amount_",
          "type": "uint256"
        }
      ],
      "name": "transferCurrency",
      "outputs": [],
      "stateMutability": "nonpayable",
      "type": "function"
    },
    {
      "inputs": [
        {
          "internalType": "address",
          "name": "from_",
          "type": "address"
        },
        {
          "internalType": "address",
          "name": "to_",
          "type": "address"
        },
        {
          "internalType": "uint256",
          "name": "amount_",
          "type": "uint256"
        }
      ],
      "name": "transferCurrencyFrom",
      "outputs": [],
      "stateMutability": "nonpayable",
      "type": "function"
    },
    {
      "inputs": [
        {
          "internalType": "address",
          "name": "from_",
          "type": "address"
        },
        {
          "internalType": "address",
          "name": "to_",
          "type": "address"
        },
        {
          "internalType": "uint256",
          "name": "tokenId_",
          "type": "uint256"
        }
      ],
      "name": "transferFrom",
      "outputs": [],
      "stateMutability": "nonpayable",
      "type": "function"
    },
    {
      "inputs": [
        {
          "internalType": "address",
          "name": "newOwner",
          "type": "address"
        }
      ],
      "name": "transferOwnership",
      "outputs": [],
      "stateMutability": "nonpayable",
      "type": "function"
    },
    {
      "inputs": [],
      "name": "treasuryRecord",
      "outputs": [
        {
          "internalType": "uint256",
          "name": "accumulatedUBI",
          "type": "uint256"
        },
        {
          "internalType": "uint256",
          "name": "accumulatedTreasury",
          "type": "uint256"
        },
        {
          "internalType": "uint256",
          "name": "treasuryWithdrawn",
          "type": "uint256"
        }
      ],
      "stateMutability": "view",
      "type": "function"
    }
  ],
  "bytecode": {
    "object": "0x60a06040523480156200001157600080fd5b506040516200299538038062002995833981016040819052620000349162000365565b8651879087906200004d906000906020850190620001f2565b50805162000063906001906020840190620001f2565b505050620000806200007a6200019c60201b60201c565b620001a0565b600b8590556001600160a01b0381166080526000808052600e60209081527fe710864318d4a32f37d6ce54cb3fadbef648dd12d8dbdf53973564d56b7f881c86905560408051878152905160008051602062002975833981519152929181900390910190a260016000819052600e60209081527fa7c5ba7114a813b50159add3a36832908dc83db71d0b9a24c2ad0f83be95820785905560408051868152905160008051602062002975833981519152929181900390910190a260026000819052600e60209081527f9adb202b1492743bc00c81d33cdc6423fa8c79109027eb6a845391e8fc1f048184905560408051858152905160008051602062002975833981519152929181900390910190a25050505050505062000453565b3390565b600a80546001600160a01b038381166001600160a01b0319831681179093556040519116919082907f8be0079c531659141344cd1fd0a4f28419497f9722a3daafe3b4186f6b6457e090600090a35050565b828054620002009062000416565b90600052602060002090601f0160209004810192826200022457600085556200026f565b82601f106200023f57805160ff19168380011785556200026f565b828001600101855582156200026f579182015b828111156200026f57825182559160200191906001019062000252565b506200027d92915062000281565b5090565b5b808211156200027d576000815560010162000282565b634e487b7160e01b600052604160045260246000fd5b600082601f830112620002c057600080fd5b81516001600160401b0380821115620002dd57620002dd62000298565b604051601f8301601f19908116603f0116810190828211818310171562000308576200030862000298565b816040528381526020925086838588010111156200032557600080fd5b600091505b838210156200034957858201830151818301840152908201906200032a565b838211156200035b5760008385830101525b9695505050505050565b600080600080600080600060e0888a0312156200038157600080fd5b87516001600160401b03808211156200039957600080fd5b620003a78b838c01620002ae565b985060208a0151915080821115620003be57600080fd5b50620003cd8a828b01620002ae565b96505060408801519450606088015193506080880151925060a0880151915060c088015160018060a01b03811681146200040657600080fd5b8091505092959891949750929550565b600181811c908216806200042b57607f821691505b602082108114156200044d57634e487b7160e01b600052602260045260246000fd5b50919050565b6080516124f86200047d6000396000818161053e01528181610ded015261121e01526124f86000f3fe608060405234801561001057600080fd5b50600436106102535760003560e01c80635d47440411610146578063b3e4ee22116100c3578063e5a6b10f11610087578063e5a6b10f14610539578063e7d6fbbf14610560578063e985e9c514610580578063ecaf822a146105bc578063f2fde38b146105cf578063f7ea7a3d146105e257600080fd5b8063b3e4ee22146104da578063b88d4fde146104ed578063c87b56dd14610500578063d17d14c514610513578063e3759abd1461052657600080fd5b8063864370071161010a57806386437007146104885780638da5cb5b1461049b57806395d89b41146104ac578063a22cb465146104b4578063a5e59fb2146104c757600080fd5b80635d474404146104185780636352211e1461044757806370a082311461045a578063715018a61461046d57806376a91e6c1461047557600080fd5b806340c10f19116101d45780634f558e79116101985780634f558e79146103b95780634f6ccce7146103cc5780635701e25d146103df578063583d4248146103f2578063585008841461040557600080fd5b806340c10f191461035357806342842e0e1461031a57806342966c6814610366578063430c2081146103795780634d7c7dc71461038c57600080fd5b806318160ddd1161021b57806318160ddd146102e85780631d8d0f48146102fa57806323b872dd1461031a5780632b2163b31461032d5780632f745c591461034057600080fd5b806301ffc9a71461025857806306fdde0314610280578063081812fc14610295578063095ea7b3146102c05780631164da76146102d5575b600080fd5b61026b610266366004611e79565b6105f5565b60405190151581526020015b60405180910390f35b610288610620565b6040516102779190611eee565b6102a86102a3366004611f01565b6106b2565b6040516001600160a01b039091168152602001610277565b6102d36102ce366004611f36565b61074c565b005b6102d36102e3366004611f60565b610862565b600b545b604051908152602001610277565b6102ec610308366004611f01565b600d6020526000908152604090205481565b6102d3610328366004611f95565b6108d5565b6102d361033b366004611f60565b6108f0565b6102ec61034e366004611f36565b610956565b6102d3610361366004611f36565b6109ec565b6102d3610374366004611f01565b610a60565b61026b610387366004611f36565b610a96565b600f5460105460115461039e92919083565b60408051938452602084019290925290820152606001610277565b61026b6103c7366004611f01565b610aa9565b6102ec6103da366004611f01565b610ac8565b6102d36103ed366004611f36565b610b5b565b6102d3610400366004611fc1565b610bcc565b6102d3610413366004611f95565b610c1c565b61039e610426366004611f01565b600c6020526000908152604090208054600182015460029092015490919083565b6102a8610455366004611f01565b610c61565b6102ec610468366004611fed565b610cd8565b6102d3610d5f565b6102d3610483366004611f95565b610d95565b6102d3610496366004612008565b610e60565b600a546001600160a01b03166102a8565b610288610ede565b6102d36104c236600461205a565b610eed565b6102d36104d5366004612091565b610ef8565b6102d36104e83660046120c6565b610f6c565b6102d36104fb366004612167565b610fd1565b61028861050e366004611f01565b6110e2565b6102d3610521366004612091565b611168565b6102d3610534366004611f36565b6111ce565b6102a87f000000000000000000000000000000000000000000000000000000000000000081565b6102ec61056e366004612221565b600e6020526000908152604090205481565b61026b61058e36600461223c565b6001600160a01b03918216600090815260056020908152604080832093909416825291909152205460ff1690565b6102d36105ca36600461226f565b61128b565b6102d36105dd366004611fed565b611330565b6102d36105f0366004611f01565b6113c8565b60006001600160e01b0319821663780e9d6360e01b148061061a575061061a82611433565b92915050565b60606000805461062f9061228b565b80601f016020809104026020016040519081016040528092919081815260200182805461065b9061228b565b80156106a85780601f1061067d576101008083540402835291602001916106a8565b820191906000526020600020905b81548152906001019060200180831161068b57829003601f168201915b5050505050905090565b6000818152600260205260408120546001600160a01b03166107305760405162461bcd60e51b815260206004820152602c60248201527f4552433732313a20617070726f76656420717565727920666f72206e6f6e657860448201526b34b9ba32b73a103a37b5b2b760a11b60648201526084015b60405180910390fd5b506000908152600460205260409020546001600160a01b031690565b600061075782610c61565b9050806001600160a01b0316836001600160a01b031614156107c55760405162461bcd60e51b815260206004820152602160248201527f4552433732313a20617070726f76616c20746f2063757272656e74206f776e656044820152603960f91b6064820152608401610727565b336001600160a01b03821614806107e157506107e1813361058e565b6108535760405162461bcd60e51b815260206004820152603860248201527f4552433732313a20617070726f76652063616c6c6572206973206e6f74206f7760448201527f6e6572206e6f7220617070726f76656420666f7220616c6c00000000000000006064820152608401610727565b61085d8383611483565b505050565b600a546001600160a01b0316331461088c5760405162461bcd60e51b8152600401610727906122c6565b816001600160a01b0316837fa760fe80056c46d089c37a35d9dbe762141a463ae0eb8235522d27ab9595286d836040516108c891815260200190565b60405180910390a3505050565b61085d83838360405180602001604052806000815250610fd1565b600a546001600160a01b0316331461091a5760405162461bcd60e51b8152600401610727906122c6565b816001600160a01b0316837fc5790222911f43ca7d78c4f5ef5cb5a21d7fda4d923d433b80e7db9c295de88a836040516108c891815260200190565b600061096183610cd8565b82106109c35760405162461bcd60e51b815260206004820152602b60248201527f455243373231456e756d657261626c653a206f776e657220696e646578206f7560448201526a74206f6620626f756e647360a81b6064820152608401610727565b506001600160a01b03919091166000908152600660209081526040808320938352929052205490565b600a546001600160a01b03163314610a165760405162461bcd60e51b8152600401610727906122c6565b600b54811180610a265750600181105b15610a5257600b5460405163168a450960e21b8152600160048201526024810191909152604401610727565b610a5c82826114f1565b5050565b600a546001600160a01b03163314610a8a5760405162461bcd60e51b8152600401610727906122c6565b610a938161150b565b50565b6000610aa283836115b2565b9392505050565b6000818152600260205260408120546001600160a01b0316151561061a565b6000610ad360085490565b8210610b365760405162461bcd60e51b815260206004820152602c60248201527f455243373231456e756d657261626c653a20676c6f62616c20696e646578206f60448201526b7574206f6620626f756e647360a01b6064820152608401610727565b60088281548110610b4957610b496122fb565b90600052602060002001549050919050565b600a546001600160a01b03163314610b855760405162461bcd60e51b8152600401610727906122c6565b816001600160a01b03167f782743bed566521eb169ba5186430a0e29079bfd1bdf4fc061bd63b48729846682604051610bc091815260200190565b60405180910390a25050565b600a546001600160a01b03163314610bf65760405162461bcd60e51b8152600401610727906122c6565b604080516060810182528481526020810184905201819052600f92909255601055601155565b600a546001600160a01b03163314610c465760405162461bcd60e51b8152600401610727906122c6565b61085d838383604051806020016040528060008152506116a9565b6000818152600260205260408120546001600160a01b03168061061a5760405162461bcd60e51b815260206004820152602960248201527f4552433732313a206f776e657220717565727920666f72206e6f6e657869737460448201526832b73a103a37b5b2b760b91b6064820152608401610727565b60006001600160a01b038216610d435760405162461bcd60e51b815260206004820152602a60248201527f4552433732313a2062616c616e636520717565727920666f7220746865207a65604482015269726f206164647265737360b01b6064820152608401610727565b506001600160a01b031660009081526003602052604090205490565b600a546001600160a01b03163314610d895760405162461bcd60e51b8152600401610727906122c6565b610d9360006116dc565b565b600a546001600160a01b03163314610dbf5760405162461bcd60e51b8152600401610727906122c6565b6040516323b872dd60e01b81526001600160a01b0384811660048301528381166024830152604482018390527f000000000000000000000000000000000000000000000000000000000000000016906323b872dd906064016020604051808303816000875af1158015610e36573d6000803e3d6000fd5b505050506040513d601f19601f82011682018060405250810190610e5a9190612311565b50505050565b600a546001600160a01b03163314610e8a5760405162461bcd60e51b8152600401610727906122c6565b816001600160a01b0316836001600160a01b0316857fc12a40285e912bef139dd458d6bb29f54ba3b7bb9513d442a8c16a3f0a649eed84604051610ed091815260200190565b60405180910390a450505050565b60606001805461062f9061228b565b610a5c33838361172e565b600a546001600160a01b03163314610f225760405162461bcd60e51b8152600401610727906122c6565b6000838152600d6020526040808220849055516001600160a01b03831691849186917f8da7074ffa2c919782faaf9705c7edfe7f814551a91b91aed83ee2ef5ac6af2791a4505050565b600a546001600160a01b03163314610f965760405162461bcd60e51b8152600401610727906122c6565b6040805160608101825293845260208085019384528482019283526000958652600c9052909320915182555160018201559051600290910155565b610fdb33836115b2565b6110415760405162461bcd60e51b815260206004820152603160248201527f4552433732313a207472616e736665722063616c6c6572206973206e6f74206f6044820152701ddb995c881b9bdc88185c1c1c9bdd9959607a1b6064820152608401610727565b6000611055600a546001600160a01b031690565b604051633f8c2b5b60e01b8152600481018590529091506000906001600160a01b03831690633f8c2b5b906024016020604051808303816000875af11580156110a2573d6000803e3d6000fd5b505050506040513d601f19601f820116820180604052508101906110c69190612311565b905080156110da576110da868686866116a9565b505050505050565b606060006110f8600a546001600160a01b031690565b60405163468bf38960e11b8152600481018590529091506001600160a01b03821690638d17e71290602401600060405180830381865afa158015611140573d6000803e3d6000fd5b505050506040513d6000823e601f3d908101601f19168201604052610aa2919081019061232e565b600a546001600160a01b031633146111925760405162461bcd60e51b8152600401610727906122c6565b806001600160a01b0316837f75a0543aefc16d03b25751bdf0b5a2fbbec05c6436fd60b038d40f5b7d1def83846040516108c891815260200190565b600a546001600160a01b031633146111f85760405162461bcd60e51b8152600401610727906122c6565b60405163a9059cbb60e01b81526001600160a01b038381166004830152602482018390527f0000000000000000000000000000000000000000000000000000000000000000169063a9059cbb906044016020604051808303816000875af1158015611267573d6000803e3d6000fd5b505050506040513d601f19601f8201168201806040525081019061085d9190612311565b600a546001600160a01b031633146112b55760405162461bcd60e51b8152600401610727906122c6565b80600e60008460028111156112cc576112cc6123a5565b60028111156112dd576112dd6123a5565b8152602081019190915260400160002055816002811115611300576113006123a5565b6040518281527f90e64b63a2c952a97e60fcb9bdb464e5e76d2920683504331028687f0cd6643b90602001610bc0565b600a546001600160a01b0316331461135a5760405162461bcd60e51b8152600401610727906122c6565b6001600160a01b0381166113bf5760405162461bcd60e51b815260206004820152602660248201527f4f776e61626c653a206e6577206f776e657220697320746865207a65726f206160448201526564647265737360d01b6064820152608401610727565b610a93816116dc565b600a546001600160a01b031633146113f25760405162461bcd60e51b8152600401610727906122c6565b600b5460408051918252602082018390527fce065be89501ad8aef77e0eb0160264c2d1eb1732a004bcb98735bb0b8102205910160405180910390a1600b55565b60006001600160e01b031982166380ac58cd60e01b148061146457506001600160e01b03198216635b5e139f60e01b145b8061061a57506301ffc9a760e01b6001600160e01b031983161461061a565b600081815260046020526040902080546001600160a01b0319166001600160a01b03841690811790915581906114b882610c61565b6001600160a01b03167f8c5be1e5ebec7d5bd14f71427d1e84f3dd0314c0f7b2291e5b200ac8c7c3b92560405160405180910390a45050565b610a5c8282604051806020016040528060008152506117f5565b600061151682610c61565b905061152481600084611828565b61152f600083611483565b6001600160a01b03811660009081526003602052604081208054600192906115589084906123d1565b909155505060008281526002602052604080822080546001600160a01b0319169055518391906001600160a01b038416907fddf252ad1be2c89b69c2b068fc378daa952ba7f163c4a11628f55a4df523b3ef908390a45050565b6000818152600260205260408120546001600160a01b031661162b5760405162461bcd60e51b815260206004820152602c60248201527f4552433732313a206f70657261746f7220717565727920666f72206e6f6e657860448201526b34b9ba32b73a103a37b5b2b760a11b6064820152608401610727565b600061163683610c61565b9050806001600160a01b0316846001600160a01b031614806116715750836001600160a01b0316611666846106b2565b6001600160a01b0316145b806116a157506001600160a01b0380821660009081526005602090815260408083209388168352929052205460ff165b949350505050565b6116b48484846118e0565b6116c084848484611a87565b610e5a5760405162461bcd60e51b8152600401610727906123e8565b600a80546001600160a01b038381166001600160a01b0319831681179093556040519116919082907f8be0079c531659141344cd1fd0a4f28419497f9722a3daafe3b4186f6b6457e090600090a35050565b816001600160a01b0316836001600160a01b031614156117905760405162461bcd60e51b815260206004820152601960248201527f4552433732313a20617070726f766520746f2063616c6c6572000000000000006044820152606401610727565b6001600160a01b03838116600081815260056020908152604080832094871680845294825291829020805460ff191686151590811790915591519182527f17307eab39ab6107e8899845ad3d59bd9653f200f220920489ca2b5937696c3191016108c8565b6117ff8383611b85565b61180c6000848484611a87565b61085d5760405162461bcd60e51b8152600401610727906123e8565b6001600160a01b0383166118835761187e81600880546000838152600960205260408120829055600182018355919091527ff3f7a9fe364faab93b216da50a3214154f22a0a2b415b23a84c8169e8b636ee30155565b6118a6565b816001600160a01b0316836001600160a01b0316146118a6576118a68382611cd3565b6001600160a01b0382166118bd5761085d81611d70565b826001600160a01b0316826001600160a01b03161461085d5761085d8282611e1f565b826001600160a01b03166118f382610c61565b6001600160a01b0316146119575760405162461bcd60e51b815260206004820152602560248201527f4552433732313a207472616e736665722066726f6d20696e636f72726563742060448201526437bbb732b960d91b6064820152608401610727565b6001600160a01b0382166119b95760405162461bcd60e51b8152602060048201526024808201527f4552433732313a207472616e7366657220746f20746865207a65726f206164646044820152637265737360e01b6064820152608401610727565b6119c4838383611828565b6119cf600082611483565b6001600160a01b03831660009081526003602052604081208054600192906119f89084906123d1565b90915550506001600160a01b0382166000908152600360205260408120805460019290611a2690849061243a565b909155505060008181526002602052604080822080546001600160a01b0319166001600160a01b0386811691821790925591518493918716917fddf252ad1be2c89b69c2b068fc378daa952ba7f163c4a11628f55a4df523b3ef91a4505050565b60006001600160a01b0384163b15611b7a57604051630a85bd0160e11b81526001600160a01b0385169063150b7a0290611acb903390899088908890600401612452565b6020604051808303816000875af1925050508015611b06575060408051601f3d908101601f19168201909252611b039181019061248f565b60015b611b60573d808015611b34576040519150601f19603f3d011682016040523d82523d6000602084013e611b39565b606091505b508051611b585760405162461bcd60e51b8152600401610727906123e8565b805181602001fd5b6001600160e01b031916630a85bd0160e11b1490506116a1565b506001949350505050565b6001600160a01b038216611bdb5760405162461bcd60e51b815260206004820181905260248201527f4552433732313a206d696e7420746f20746865207a65726f20616464726573736044820152606401610727565b6000818152600260205260409020546001600160a01b031615611c405760405162461bcd60e51b815260206004820152601c60248201527f4552433732313a20746f6b656e20616c7265616479206d696e746564000000006044820152606401610727565b611c4c60008383611828565b6001600160a01b0382166000908152600360205260408120805460019290611c7590849061243a565b909155505060008181526002602052604080822080546001600160a01b0319166001600160a01b03861690811790915590518392907fddf252ad1be2c89b69c2b068fc378daa952ba7f163c4a11628f55a4df523b3ef908290a45050565b60006001611ce084610cd8565b611cea91906123d1565b600083815260076020526040902054909150808214611d3d576001600160a01b03841660009081526006602090815260408083208584528252808320548484528184208190558352600790915290208190555b5060009182526007602090815260408084208490556001600160a01b039094168352600681528383209183525290812055565b600854600090611d82906001906123d1565b60008381526009602052604081205460088054939450909284908110611daa57611daa6122fb565b906000526020600020015490508060088381548110611dcb57611dcb6122fb565b6000918252602080832090910192909255828152600990915260408082208490558582528120556008805480611e0357611e036124ac565b6001900381819060005260206000200160009055905550505050565b6000611e2a83610cd8565b6001600160a01b039093166000908152600660209081526040808320868452825280832085905593825260079052919091209190915550565b6001600160e01b031981168114610a9357600080fd5b600060208284031215611e8b57600080fd5b8135610aa281611e63565b60005b83811015611eb1578181015183820152602001611e99565b83811115610e5a5750506000910152565b60008151808452611eda816020860160208601611e96565b601f01601f19169290920160200192915050565b602081526000610aa26020830184611ec2565b600060208284031215611f1357600080fd5b5035919050565b80356001600160a01b0381168114611f3157600080fd5b919050565b60008060408385031215611f4957600080fd5b611f5283611f1a565b946020939093013593505050565b600080600060608486031215611f7557600080fd5b83359250611f8560208501611f1a565b9150604084013590509250925092565b600080600060608486031215611faa57600080fd5b611fb384611f1a565b9250611f8560208501611f1a565b600080600060608486031215611fd657600080fd5b505081359360208301359350604090920135919050565b600060208284031215611fff57600080fd5b610aa282611f1a565b6000806000806080858703121561201e57600080fd5b8435935061202e60208601611f1a565b925061203c60408601611f1a565b9396929550929360600135925050565b8015158114610a9357600080fd5b6000806040838503121561206d57600080fd5b61207683611f1a565b915060208301356120868161204c565b809150509250929050565b6000806000606084860312156120a657600080fd5b83359250602084013591506120bd60408501611f1a565b90509250925092565b600080600080608085870312156120dc57600080fd5b5050823594602084013594506040840135936060013592509050565b634e487b7160e01b600052604160045260246000fd5b604051601f8201601f1916810167ffffffffffffffff81118282101715612137576121376120f8565b604052919050565b600067ffffffffffffffff821115612159576121596120f8565b50601f01601f191660200190565b6000806000806080858703121561217d57600080fd5b61218685611f1a565b935061219460208601611f1a565b925060408501359150606085013567ffffffffffffffff8111156121b757600080fd5b8501601f810187136121c857600080fd5b80356121db6121d68261213f565b61210e565b8181528860208385010111156121f057600080fd5b8160208401602083013760006020838301015280935050505092959194509250565b803560038110611f3157600080fd5b60006020828403121561223357600080fd5b610aa282612212565b6000806040838503121561224f57600080fd5b61225883611f1a565b915061226660208401611f1a565b90509250929050565b6000806040838503121561228257600080fd5b611f5283612212565b600181811c9082168061229f57607f821691505b602082108114156122c057634e487b7160e01b600052602260045260246000fd5b50919050565b6020808252818101527f4f776e61626c653a2063616c6c6572206973206e6f7420746865206f776e6572604082015260600190565b634e487b7160e01b600052603260045260246000fd5b60006020828403121561232357600080fd5b8151610aa28161204c565b60006020828403121561234057600080fd5b815167ffffffffffffffff81111561235757600080fd5b8201601f8101841361236857600080fd5b80516123766121d68261213f565b81815285602083850101111561238b57600080fd5b61239c826020830160208601611e96565b95945050505050565b634e487b7160e01b600052602160045260246000fd5b634e487b7160e01b600052601160045260246000fd5b6000828210156123e3576123e36123bb565b500390565b60208082526032908201527f4552433732313a207472616e7366657220746f206e6f6e20455243373231526560408201527131b2b4bb32b91034b6b83632b6b2b73a32b960711b606082015260800190565b6000821982111561244d5761244d6123bb565b500190565b6001600160a01b038581168252841660208201526040810183905260806060820181905260009061248590830184611ec2565b9695505050505050565b6000602082840312156124a157600080fd5b8151610aa281611e63565b634e487b7160e01b600052603160045260246000fdfea2646970667358221220251cc574edf92360ddc2a28aae1bc25acb30795aed4ae6800f43689ba325d82f64736f6c634300080b003390e64b63a2c952a97e60fcb9bdb464e5e76d2920683504331028687f0cd6643b",
    "linkReferences": {}
  },
  "methodIdentifiers": {
    "approve(address,uint256)": "095ea7b3",
    "balanceOf(address)": "70a08231",
    "burn(uint256)": "42966c68",
    "currency()": "e5a6b10f",
    "emitDeal(uint256,address,address,uint256)": "86437007",
    "emitPrice(uint256,uint256,address)": "d17d14c5",
    "emitTax(uint256,address,uint256)": "2b2163b3",
    "emitTreasury(address,uint256)": "5701e25d",
    "emitUBI(uint256,address,uint256)": "1164da76",
    "exists(uint256)": "4f558e79",
    "getApproved(uint256)": "081812fc",
    "isApprovedForAll(address,address)": "e985e9c5",
    "isApprovedOrOwner(address,uint256)": "430c2081",
    "mint(address,uint256)": "40c10f19",
    "name()": "06fdde03",
    "owner()": "8da5cb5b",
    "ownerOf(uint256)": "6352211e",
    "pixelColor(uint256)": "1d8d0f48",
    "renounceOwnership()": "715018a6",
    "safeTransferByMarket(address,address,uint256)": "58500884",
    "safeTransferFrom(address,address,uint256)": "42842e0e",
    "safeTransferFrom(address,address,uint256,bytes)": "b88d4fde",
    "setApprovalForAll(address,bool)": "a22cb465",
    "setColor(uint256,uint256,address)": "a5e59fb2",
    "setTaxConfig(uint8,uint256)": "ecaf822a",
    "setTokenRecord(uint256,uint256,uint256,uint256)": "b3e4ee22",
    "setTotalSupply(uint256)": "f7ea7a3d",
    "setTreasuryRecord(uint256,uint256,uint256)": "583d4248",
    "supportsInterface(bytes4)": "01ffc9a7",
    "symbol()": "95d89b41",
    "taxConfig(uint8)": "e7d6fbbf",
    "tokenByIndex(uint256)": "4f6ccce7",
    "tokenOfOwnerByIndex(address,uint256)": "2f745c59",
    "tokenRecord(uint256)": "5d474404",
    "tokenURI(uint256)": "c87b56dd",
    "totalSupply()": "18160ddd",
    "transferCurrency(address,uint256)": "e3759abd",
    "transferCurrencyFrom(address,address,uint256)": "76a91e6c",
    "transferFrom(address,address,uint256)": "23b872dd",
    "transferOwnership(address)": "f2fde38b",
    "treasuryRecord()": "4d7c7dc7"
  },
  "id": 38
}